:020000040800F2
:10000000C81F0020B1020008AF500008DD4C0008F6
:10001000AD500008E1140008BD7F0008000000009A
:100020000000000000000000000000009F5D0008CC
:10003000311700080000000011510008A15D000800
:10004000CF020008CF020008CF020008CF0200084C
:10005000CF020008CF020008CF020008CF0200083C
:10006000CF02000833170008CF020008CF020008B3
:10007000CF020008CF020008CF020008CF0200081C
:10008000CF020008CF020008CF020008CF0200080C
:10009000CF020008CF020008CF020008CF020008FC
:1000A000CF020008CF020008CF020008CF020008EC
:1000B000CF020008CF020008CF020008CF020008DC
:1000C000CF020008CF020008CF020008CF020008CC
:1000D000CF020008CF020008CF020008CF020008BC
:1000E000CF020008CF02000800000000CF02000885
:1000F000CF020008CF020008CF020008CF0200089C
:10010000CF020008CF020008CF020008CF0200088B
:10011000CF02000855730008CF020008CF02000884
:10012000CF020008CF020008CF020008CF0200086B
:10013000CF020008CF020008CF020008CF0200085B
:1001400000000000000000000000000000000000AF
:10015000CF020008CF020008CF020008CF0200083B
:10016000CF020008CF020008CF020008CF0200082B
:10017000CF020008CF020008CF020008CF0200081B
:10018000CF020008CF02000861730008CF02000808
:10019000CF020008CF020008CF020008CF020008FB
:1001A000CF020008CF020008CF020008CF020008EB
:1001B000CF020008CF020008CF020008CF020008DB
:1001C000CF020008CF020008CF020008CF020008CB
:1001D000CF020008CF020008CF020008CF020008BB
:1001E000CF020008CF020008CF020008CF020008AB
:1001F000CF020008CF020008CF020008CF0200089B
:10020000CF020008CF020008CF020008CF0200088A
:10021000CF020008CF020008CF020008CF0200087A
:10022000CF020008CF020008CF0200080000000043
:10023000CF020008CF02000800000000CF02000833
:10024000CF020008CF020008CF020008CF0200084A
:10025000CF020008CF020008CF020008CF0200083A
:10026000CF020008CF020008CF020008CF0200082A
:10027000CF020008CF020008CF02000800000000F3
:10028000CF020008CF020008CF02000800000000E3
:1002900000000000CF020008DFF810D000F062FD7F
:1002A00000480047B1AC0008AFF30080C81F002031
:1002B000074880470748804707480047FEE7FEE7B2
:1002C000FEE7FEE7FEE7FEE7FEE7FEE7FEE7FEE706
:1002D0003D1700084D5E0008990200082DE9F05F07
:1002E0000546002092469B468846064681464024A5
:1002F0001BE0284641464746224600F037FC53465D
:100300005A46C01A914110D311461846224600F0B1
:1003100016F82D1A67EB01084F46224601200021EE
:1003200000F00DF817EB00094E41201EA4F1010466
:10033000DFDC484631462A464346BDE8F09F202A86
:1003400004DB203A00FA02F1002070479140C2F12C
:10035000200320FA03F3194390407047202A06DB5C
:10036000CB17203A41FA02F043EAE07306E041FA83
:1003700002F3D040C2F12002914008431946704771
:1003800040EA01039B0703D009E008C9121F08C017
:10039000042AFAD203E011F8013B00F8013B521E97
:1003A000F9D27047D2B201E000F8012B491EFBD20E
:1003B00070470022F6E710B513460A460446194670
:1003C000FFF7F0FF204610BD421C10F8011B00296A
:1003D000FBD1801A704710B5002200E0521C835CEC
:1003E0008C5CA34201D1002BF8D1D8B2E1B2401A03
:1003F00010BD0022CBB20178994200D10246401CC8
:100400000029F8D1104670470FB400B58DB010A97F
:1004100009900B9000914FF0FF300A9000200C9053
:1004200005480690054807906A4609A80F9900F00C
:10043000B3FB0DB05DF814FBB50B0008D30B00083F
:100440002DE9FF4F087883B09946FF2805D0491C55
:100450002D2804D00024002008E000200BE0012417
:10046000F9E700EB800003EB4000491C0B78FF2B01
:10047000F7D104B1404200230293147819461D4677
:100480002D2C01D02B2C04D1521C2D2C13D0002448
:100490000294AA461478FF2C0FD00A25A3FB0578F6
:1004A00001FB05814FF0000C03FB0C11521CE319FA
:1004B0004AEB0101EEE70124EAE7814453EA010037
:1004C00002D019F5C87F06DA03980021C0E90011AF
:1004D00007B0BDE8F08F0025AE4E2F46DFF8B8829A
:1004E000184600F01BFCCDE90001B9F1000002DA6A
:1004F000C9F1000400E004460023A74A1AEB030BED
:1005000042EB045A12E0E00707D02A463346384649
:10051000414600F0ECF9074688462A463346104625
:10052000194600F0E4F905460E466410002CEAD1A5
:10053000DDE90001B9F1000F5A46534606DA00F032
:1005400048FA3A46434600F044FA05E000F0CFF995
:100550003A46434600F0CBF9029A0AB181F00041D5
:10056000039AC2E90001B3E72DE9FF4F1F468DB0A2
:10057000D7E901464FF0FF382E2045464FF00009DD
:100580000B90B9696D1C0E988847396A8246884776
:100590000028F6D1BAF1FF3F0AD024F4D064002E2F
:1005A00011DDBAF12B0F08D0BAF12D0F0BD102E0FB
:1005B000404611B08DE744F48064B9696D1C0E9813
:1005C00088478246761E6946600501D52D2000E0E9
:1005D0002B208DF8000001F1010B0DF1200809E03E
:1005E000B9696D1C0E98884782460F9844F40074D0
:1005F000761E0560002E02DDBAF1300FF0D00B99A7
:100600008A453ED144F0800406E00F99681CA9F1A8
:10061000010944F400740860B9696D1C761E0E98D7
:10062000884782463028F0D02BE00B998A4505D1C7
:10063000200603D444F08004761E18E0504608F0EB
:1006400063F808B30DF11301761E44F400748B4572
:1006500008D2AAF130000BF8010B200607D5A9F14A
:10066000010003E0200602D409F101008146A00543
:1006700002D50F99681C0860B9696D1C0E988847EF
:100680008246002ED1DC53E0002E51DDBAF1650F19
:1006900002D0BAF1450F4BD1A00549D5B9696D1CFF
:1006A00024F44074761E0E9888478246002E0CDD96
:1006B0002B2804D0BAF12D0F07D144F48074B96906
:1006C0006D1C0E9888478246761EE00501D52D21C7
:1006D00000E02B2108F8011BCDF82C8021E00DF162
:1006E0002901761E44F4007488450CD2AAF130002A
:1006F00010F0FF0088F8000002D10B99884509D955
:1007000008F1010806E0E00501D5244801E042F2C5
:100710000F708146B9696D1C0E98884782460F9804
:100720000560002E04DD504607F0EEFF0028D6D10C
:10073000F9690E988847FF208BF8000088F80000C0
:100740000020069007904B466A4608A906A8FFF7C6
:1007500077FEA00502D46FF001002AE714F0240F01
:100760000AD0E00714D1DDE906123868031D3B60AA
:100770000068C0E900120BE0DDE9060100F0C4F9F1
:100780000146E00704D13868021D3A600068016044
:1007900028460EE7000014400000F03FF1D8FFFFAC
:1007A0002DE9FE4F804681EA0300C00F0C46009001
:1007B00021F0004123F00045B8EB0200A94105D229
:1007C0004046214690461C460B46024623F0004018
:1007D000104347D0270DC7F30A00C3F30A51029014
:1007E000401A019040286BDAC3F3130040F4801BD9
:1007F0000098924620B10023D2EB030A63EB0B0B67
:1008000001985946C0F140025046FFF798FD064650
:100810000D4650465946019AFFF7A0FD10EB08001F
:100820006141002487EA115284EAE7731A4340D0F9
:10083000009A62B3019A012A4FEA075215DC001BA5
:1008400061EB02014FF0004202EA0752CDE900429B
:10085000001C41F5801132462B4600F011FA03B01E
:10086000BDE8F08F40462146F9E7001B61EB02012D
:10087000001C41F5801300185B412018A2F50017F9
:1008800047EB030140EAD570B6196D4111E06D08E0
:100890004FEA360645EAC0754FEA0752001B61EB86
:1008A0000201001C41F5801149084FEA300000198F
:1008B000514132462B4603B0BDE8F04F00F0D1B9AC
:1008C0000098012240000023D0EB020263EBE073AA
:1008D000009821464FEAE074B8EB000061EB040198
:1008E000E9E783F000435BE781F0004158E72DE939
:1008F000FE4F81EA030404F0004421F0004100941B
:100900004FF0000B23F0004350EA01045ED052EA9E
:1009100003045BD0C3F30A54C1F30A552C44A4F278
:10092000F3340194A0FB0254C1F3130141F480118C
:10093000C3F3130343F4801301FB024400FB034E93
:10094000840A970A44EA815447EA8357A4FB07685C
:1009500002958D0A05FB07854FEA932C04FB0C5486
:100960002705029D4FEA065847EA1637B5EB0805FA
:100970006EEB070C870E920E47EA811742EA83124C
:10098000A7FB0201B6EB0B0164EB00042B0D43EA5D
:100990000C335E1844EB1C50DA465146E7FB02016B
:1009A000C5F313044FEA0B3343EA14534FEA0432FE
:1009B000019C43EA0603A4F10C040294009CCDE9D7
:1009C00000B400F05DF903B0BDE8F08F00200146EF
:1009D000F9E72DE9F04D81EA030404F0004B21F022
:1009E000004514464FF0000A23F0004150EA05028A
:1009F00020D054EA01021DD0C5F30A570246C5F3C0
:100A00001303C1F31300C1F30A5640F4801543F4F5
:100A10008013A7EB0608101BD64608F2FD3873EBCF
:100A2000050002D308F1010801E092185B41B8F11A
:100A3000000F03DA00200146BDE8F08D00204FF4DE
:100A40008011064684460EE0171B73EB050705D39D
:100A5000121B63EB050306434CEA010C49084FEAFD
:100A6000300092185B4150EA0107EDD152EA0300D1
:100A700012D082EA040083EA0501084305D0101B66
:100A8000AB4106D20122002306E000224FF00043D2
:100A900002E06FF0010253101AEB06004CEB085114
:100AA00010EB0A0041EB0B01BDE8F04D00F0D9B8A6
:100AB00000F0004230F000400AD0C10D01F5607135
:100AC000C0F3160042EA0151C208400711437047C3
:100AD000002001467047000030B5041E71F100048B
:100AE00004DB4FF00044404264EB0101141E73F13B
:100AF000000405DB1C464FF00043524263EB040345
:100B0000994208BF904230BD01F0004330B421F05B
:100B1000004150EA010206D00A0DA2F56072C1F34D
:100B20001301002A02DC30BC00207047440F44EA65
:100B3000C104C100E01830BC00EBC25000F05AB84C
:100B400030B50B46014600202022012409E021FA9D
:100B500002F59D4205D303FA02F5491B04FA02F59A
:100B60002844151EA2F10102F1DC30BD202A04DB6D
:100B7000203A21FA02F00021704721FA02F3D04016
:100B8000C2F120029140084319467047026811449F
:100B90001378016018467047D160044951610449D7
:100BA000116200211161114600F0F4B88D0B0008AC
:100BB000890D0008426842B1016811F8013B23B178
:100BC000521EC0E90012184670470121C160881EFC
:100BD000704742685AB1C368016843B983688B4261
:100BE00005D0491E521CC0E90012002070474FF08A
:100BF000FF3070470029A8BF7047401C490008BF5C
:100C000020F00100704710B4B0FA80FC00FA0CF03C
:100C100050EA010404BF10BC704749B1CCF1200474
:100C200021FA04F411FA0CF118BF01212143084301
:100C3000A3EB0C01CB1D4FEA00614FEA102042BF2D
:100C4000002010BC704700EBC35010440029A4BF23
:100C500010BC7047401C490008BF20F0010010BCC8
:100C6000704710B5141E73F1000408DA401C41F1FE
:100C7000000192185B411A4301D120F0010010BD20
:100C80002DE9F04D92469B4611B1B1FA81F202E096
:100C9000B0FA80F220329046FFF751FB04460F462F
:100CA00040EA0A0041EA0B0153465A46084313D072
:100CB000114653EA010019D0C8F140025046FFF72F
:100CC00055FF05460E46504659464246FFF737FB4C
:100CD000084305D0012004E020463946BDE8F08DE8
:100CE0000020054346EAE0762C4337430A98630523
:100CF000E40AA0EB08000022FD0A44EA47540A3047
:100D000002D500200146E9E7010510196941DDE936
:100D1000084500196941BDE8F04DA2E70EB540F263
:100D2000334202920022CDE900221346FFF7A8FFCA
:100D300003B000BDC1F30A52C1F3130140F2FF3307
:100D400041F480119A4202DA00200146704740F2D5
:100D500033439A42A2F2334202DC5242FFF706BF0B
:100D6000FFF7EDBA064C074D06E0E06840F00103DE
:100D700094E8070098471034AC42F6D3FFF790FA96
:100D8000FCDA00082CDB0008C0B24FF4F05100F090
:100D900099B900002DE9F34F8BB04FF0000801F135
:100DA0000C000C464FF0010B46460DF1080A01906D
:100DB0006269012101989047051E2DD0252D2CD068
:100DC000216A8847C0B16269012101989047216A70
:100DD00088470028F7D1411E62690198904700E0DA
:100DE000761CA1690B988847216A88470028F7D1AB
:100DF000E1690B988847DBE7A1690B9888470746AC
:100E0000A84201D1761CD3E7E1690B9888477F1C83
:100E100002D1B8F1000F6FD047E1002762693D466B
:100E20003946019890472A2804D162690121019826
:100E300090470125DFF88892626901210198904767
:100E4000A0F130010A290AD24F45E5DC07EB870102
:100E500000EB4107303FDFD445F01005ECE7E90631
:100E600001D46FF000476C280AD04C2814D06828B1
:100E700015D06A280DD074281CD07A281AD01DE00D
:100E800062690121019890476C2802D045F0040561
:100E900014E045F002050DE045F020050AE0626926
:100EA000012101989047682802D045F0080505E027
:100EB00045F400656269012101989047C4E9015732
:100EC00065283DD019DC58287AD00CDC452837D06D
:100ED00004DC252826D0412831D131E046282FD006
:100EE00047282CD12CE05B2877D0612828D06328B4
:100EF0007CD0642823D15AE0D1E06F2848D008DCA8
:100F000066281DD067281BD0692821D06E2816D1ED
:100F100027E0702845D0732868D0752847D07828F6
:100F20000DD14DE0A1690B988847054625283FF46F
:100F300069AFE1690B9888476D1C3FF46AAFB4E074
:100F400023466A466FF001000B99FFF70DFB9FE007
:100F500045F040006060A80723464FF0000236D4F9
:100F60003EE0E8077FF447AF2068011D216000687C
:100F7000290501D506701BE7290701D5068017E76B
:100F8000A90703D5F117C0E9006111E706600FE773
:100F900045F040006060A80723464FF0080216D4D1
:100FA0001EE040F60E0125EA0100606016E045F003
:100FB00040006060A80723464FF00A0207D40FE004
:100FC00045F040006060A80708D5234610226FF066
:100FD00001000B99AFF300805AE007E0234610228E
:100FE0006FF001000B99AFF3008051E04FF0000962
:100FF0004F464B46632802D05B2807D041E020795A
:10100000C00601D40120A06001273AE062690121F5
:10101000019890475E2805D14FF001096269494661
:1010200001989047216939B900210A46534643F88F
:101030002120491C0829FADBB0B3216969B9C1171D
:1010400000EBD16253110AEB830122F01F02821AD6
:1010500001200B68904003430B60626901210198F5
:1010600090475D28E8D1B9F1000F09D00020514622
:1010700051F82020D24341F82020401C0828F7DBFB
:1010800002AB224600976FF001000B99AFF300808E
:1010900000280CDA401C08D1BBF1000F05D04FF03E
:1010A000FF300DB0BDE8F08FFFE74046F9E7E907F4
:1010B00001D108F1010806444FF0000B78E600006A
:1010C000CCCCCC0C7F2801D9002208E0064A02EBE8
:1010D0005002C007127800D1120902F00F0201205D
:1010E000904008407047000028DA0008F0B587B04B
:1010F00014216846FFF75DF91D48016841F00801B9
:101100000160016801F008010591016841F00101E9
:101110000160016801F001010591016841F00201DF
:101120000160016801F002010591016841F00401CC
:1011300001600068012401AA009400F004000590F9
:101140000C4F00250226694682E87000384600F000
:1011500067FFCDE900646946384600F061FF08206A
:101160006946CDE90005384600F05AFF07B0F0BDEA
:10117000E04402580000025870B50546FFF7B6FF7C
:101180007A4C01220221204601F060F8012220461B
:10119000042101F05BF800222046012101F056F8FD
:1011A000322000F017FF01222046114601F04EF8D0
:1011B000322000F00FFF00222046022101F046F805
:1011C00000222046042101F041F8082008F0C4F86C
:1011D0001121284604F078FD082008F0BDF801220E
:1011E0002046042101F032F82021284600F006F9BB
:1011F000044601465EA000F06FFA732C09D0532C10
:1012000057D05EA000F068FA6AA0214600F064FAA8
:10121000FAE76CA000F060FA642000F0DBFE012227
:101220002846412100F032F90A2008F095F8E02222
:101230002846422100F02AF90A2000F0CBFE1022B5
:101240002846432100F022F90A2008F085F84022C0
:101250002846442100F01AF90A2008F07DF80022FF
:101260002846452100F012F90A2008F075F8EC2212
:101270002846462100F00AF90A2008F06DF80F22EE
:101280002846472100F002F90A2008F065F80022FC
:101290002846482100F0FAF80A2008F05DF8EA2212
:1012A0002846492100F0F2F80A2008F055F80322F8
:1012B0004BE04BA000F010FA02222846412100F03A
:1012C000E5F80A2008F048F8E3222846422100F019
:1012D000DDF80A2000F07EFE10222846432100F0AF
:1012E000D5F80A2008F038F840222846442100F0BA
:1012F000CDF80A2008F030F805222846452100F0F4
:10130000C5F80A2008F028F8EC222846462100F00B
:10131000BDF80A2008F020F80F222846472100F0E7
:10132000B5F80A2008F018F800222846482100F0F5
:10133000ADF80A2008F010F802222846492100F0F2
:10134000A5F80A2008F008F8072228464A2100F0EC
:101350009DF80A2008F000F80C2228464B2100F0E6
:1013600095F8BDE870400A2007F0F6BF000002586B
:1013700049443A253032780D0A000000746865202F
:10138000646576696365206973206E6F7420726589
:10139000636F676E697A65642C706C656173652034
:1013A000636865636B20746865206465766963654E
:1013B0000D0A00004552524F522049443A2530321E
:1013C000780D0A0054686973206465766963652046
:1013D00069732041445331323932520D0A00000002
:1013E0005468697320646576696365206973204178
:1013F0004453313239320D0A0000000070B5124DED
:1014000000220C4606460421284600F01FFF214614
:10141000304604F059FC082007F09EFF00213046BA
:1014200004F052FC082007F097FFFF21304604F03B
:101430004BFC0446082007F08FFF012228460421B8
:1014400000F004FF204670BD0000025870B50E4C3D
:10145000002204210546204600F0F8FE082007F08F
:101460007BFF1021284604F02FFC082007F074FFB2
:1014700001222046042100F0E9FE2046BDE870402C
:101480000122022100F0E2BE000002582DE9F041E5
:10149000124C174600220D4604210646204600F055
:1014A000D5FE2946304604F00FFC082007F054FF13
:1014B0000021304604F008FC082007F04DFF3946B3
:1014C000304604F001FC082007F046FF2046BDE846
:1014D000F0410122042100F0B9BE000000000258D2
:1014E000FEE7000030B500239FED0A0A0FE000BFC1
:1014F00000EB830401EB8305D4ED000A95ED001A9F
:101500005B1C70EEC10AF0EEE00A30EE800A9342F6
:10151000EED330BD0000000010B5254C40F20112A2
:101520009042A0F2011123D007DC10282BD0112803
:1015300024D0B0F5807F0CD115E0A1F58071013980
:1015400026D0A1F5807101392CD0A1F58071013927
:1015500023D0014617A000F0BFF82078002801D062
:101560000020607010BD1BA000F0B6F8012003E061
:101570001EA000F0B1F802202070F1E722A000F0D8
:10158000ABF80420F8E727A000F0A6F80320F3E763
:101590002AA000F0A1F80520EEE72BA000F09CF8AF
:1015A0000620E9E72DA000F097F80720E4E7000007
:1015B00014000020E69CAAE79FA5E591BDE4BBA42A
:1015C0002CE4B8A2E5BC833A203078253034580D9D
:1015D0000A000000E794A8E688B7E69D83E99990A1
:1015E000E9AA8CE8AF810D0A00000000E7AEA1E790
:1015F0009086E59198E69D83E99990E9AA8CE8AFF9
:10160000815C720A00000000E7AEA1E79086E591D8
:1016100098E69D83E99990E6B3A8E5868C5C720A0A
:1016200000000000E794A8E688B7E69D83E999905A
:10163000E6B3A8E5868C0D0A00000000E5BC80E951
:1016400094815C720A000000E7B3BBE7BB9FE588AA
:101650009DE5A78BE58C965C720A0000E794A8E6EE
:1016600088B7E7AEA1E790860D0A00002DE9FF4F8D
:1016700086460DA804269FED170A90E880060021F3
:1016800035465A180020921B3C18002AA4EB05048A
:1016900018DB4A4516DA002C14DB544512DA02FB3B
:1016A0000A4BDDF808C000EBC1040CEBC40C019C34
:1016B0000EEB8B0804EB8C04D8ED000A94ED001AB5
:1016C00000EE810A401C0828DEDB491C0829D8DB13
:1016D000BDE8FF8F000000000FB40C4810B54FF4B8
:1016E000C07403AB2146029A06F090FD002809DD84
:1016F000A04200DB601E054982B205484FF6FF7329
:1017000003F05EF910BC5DF814FB0000000000243B
:10171000B402002005480122082110B500F096FD12
:10172000BDE81040012000F055BC00000008025840
:101730007047082000F068BC72B6FEE7054805490E
:101740000839026842F00202026008688004FCD591
:10175000704700000C4802582DE9F041154F02F186
:10176000FA048446069EA1F196003D16844208DDE7
:10177000044606E05CF82200B84201DD0746154643
:10178000521CA242F6DD681C04D0642D02D49430B1
:10179000884202DB0020BDE8F0810CEB8501184691
:1017A0004FF47A72A1F5C871FEF7EAFD01203560A9
:1017B000F1E70000816967FF2DE9F0434FF4FA6714
:1017C00006466F4839462DED088BE5B0FEF7F1FD72
:1017D000DFED6C8A6A4CBD105FF000000021B0EEB6
:1017E000688AC0F5FA720CE001EB000C06EB81038D
:1017F00006EB8C0C93ED000ADCED000A491C00EEB0
:10180000208A8A42F0DC04EB8001401CA84281ED72
:10181000008AE3DBDFED5C0A94ED000A5FF0000074
:1018200030EE200A04EB8001401CD1ED000AA842F2
:1018300080EE801A81ED001AF4DB54483946FEF739
:10184000B8FD9FED530A06F0B5FDF0EE409A9FED0E
:10185000510A06F0AFFDB0EE409AF0EE00AAB7EEE6
:1018600000AAA0469FED4CBADFED4CBADFF81C9100
:101870005FF000045FF00007B0EE688A00EE107AB7
:1018800000EE904AB8EEC01AB0EE4A0AF8EEE00A4E
:1018900001EE2A0A20EE0B0A60EE200A80EEAB0A67
:1018A00006F0E0FC08EB87007F1CD0ED000AAF4299
:1018B00000EE808AE2DBE4B329EE080A09EB84003B
:1018C0004946641CAC4280ED000AD3DB344A002058
:1018D00001EB800402EB800394ED000A401CA84257
:1018E00083ED000AF4DB00244FEA040006EB8001DC
:1018F00091ED000AB0EEC00AB4EEE80AF1EE10FA7B
:1019000002DDF0EE408A0446401CA842EEDB4FF4B4
:10191000C87768463946FEF74CFDB4F13100E84619
:1019200004F132040CD4AC4210DA06EB80013A46E2
:1019300011E0FFE729EE880A012489ED000A99E702
:10194000A2003146121DA8EB800005E0C0F5FA7236
:1019500006EB800192004046FEF712FD114900207F
:1019600008EB800201EB800392ED000A401C642822
:1019700083ED000AF4DB65B0BDEC088BBDE8F083B5
:1019800060CF052400000000BD37863530D7052420
:101990006F12033B6F12833BDB0F494000007A4418
:1019A000D0E60524A0EE0524002200F001B80000D6
:1019B0000E4B70B505465C7A0120002C14D15E7A7E
:1019C00003F108009C555E7A03EB860675605D7A2C
:1019D0002A54587A421C5A723A232F223030087007
:1019E0004B7020468A70CC7070BD0000B80B002090
:1019F0002DE9F84F044600F035FC00903CB194F816
:101A00003500022806D0802161650020E4E0012035
:101A1000BDE8F88FC74DC74EC64918352068303627
:101A2000DFF81483DFF814938842DFF814A3DFF89B
:101A300014B32ED0A8422CD0B0422AD0404528D092
:101A4000484526D0504524D0584522D0BD4A1832AA
:101A500090421ED0BC4A90421BD0BB4A18329042E2
:101A600017D0B94A3032904213D0B74A4832904228
:101A70000FD0B54A603290420BD0B34A78329042D0
:101A800007D0B14A9032904203D0AF4AA832904278
:101A900009D1026822F01E0202602068426922F029
:101AA0008002426103E0026822F00E0202602768B1
:101AB0008F4238464DD0A8424BD0B04249D0404525
:101AC00047D0484545D0504543D0584541D09D4A20
:101AD000183290423DD09C4A90423AD09A4A1832ED
:101AE000904236D0984A3032904232D0964A4832AC
:101AF00090422ED0944A603290422AD0924A783254
:101B0000904226D0904A9032904222D08E4AA832FB
:101B100090421ED08D4A90421BD08C4A1432904283
:101B200017D08A4A2832904213D0884A3C329042D9
:101B30000FD0864A503290420BD0844A6432904291
:101B400007D0824A7832904203D0804A8C32974242
:101B500004D1206E026822F4807202607549206808
:101B6000884228D0A84226D0B04224D0404522D076
:101B7000484520D050451ED058451CD071491831D9
:101B8000884218D07049884215D06F491831884270
:101B900011D06D49303188420DD06B4948318842AF
:101BA00009D069496031884205D067497831884257
:101BB00001D065499031016821F0010101600EE01A
:101BC00000F050FB0099401A052808D920226265D0
:101BD0000321002084F8351084F8340017E73868B2
:101BE000C007EDD1534A0121206890422ED0A8426F
:101BF0002CD0B0422AD0404528D0484526D0504568
:101C000024D0584522D04F4B183398421ED04E4B0B
:101C100098421BD04C4B1833984217D04A4B303364
:101C2000984213D0484B483398420FD0464B60330C
:101C300098420BD0444B7833984207D0424B9033B4
:101C4000984203D0404BA833984208D194F85C7076
:101C50003F23A06D07F01F07BB40836007E094F8A7
:101C60005C30A06D03F01F0301FA03F343602068AA
:101C700090424DD0A8424BD0B04249D0404547D0C9
:101C8000484545D0504543D0584541D02D4A18329B
:101C900090423DD02C4A90423AD02B4A1832904282
:101CA00036D0294A3032904232D0274A48329042C8
:101CB0002ED0254A603290422AD0234A7832904270
:101CC00026D0214A9032904222D01F4AA832904218
:101CD0001ED01E4A90421BD01C4A1432904217D08C
:101CE0001A4A2832904213D0184A3C3290420FD000
:101CF000164A503290420BD0144A6432904207D0B8
:101D0000124A7832904203D0104A8C3290420BD162
:101D1000D4E919024260E06E30B1026822F48072A8
:101D20000260D4E91C024260002084F8351084F877
:101D300034006DE61000024058000240700002407E
:101D400088000240A00002401004024008540258DB
:101D50002DE9F05F28B190F83510022904D08021D8
:101D600041650120BDE8F09F904C904B0168183C04
:101D700018338E4ADFF83C92A1428D4CDFF838E2EE
:101D80008E4FDFF83CB2DFF83CA28F4D8F4E31D042
:101D900091422FD099422DD0A1422BD0494529D034
:101DA000714527D0B94225D0DFF810C20CF1180CCC
:101DB00061451FD0DFF808C2ACF1600C614519D055
:101DC000DFF8FCC1ACF1480C614513D0DFF8F0C17D
:101DD000ACF1300C61450DD0DFF8E4C1ACF1180C6A
:101DE000614507D0594505D0514503D0A94201D0DE
:101DF000B1422CD1DFF8B4C14FF0040880F835802F
:101E0000ACF1180C61451DD091421BD0994219D0FC
:101E1000A14217D0494515D0714513D0B94211D010
:101E20006648183081420DD065486038814209D03B
:101E300063484838814205D061483038814201D03A
:101E40005F481838086820F001000860ABE0D1F85E
:101E500000C02CF00E08DFF854C1C1F80080ACF1CE
:101E6000180C0168614527D0914225D0994223D0B2
:101E7000A14221D049451FD071451DD0B9421BD088
:101E8000DFF838C10CF1180C614515D0DFF830C10E
:101E9000ACF1600C61450FD0DFF824C1ACF1480C07
:101EA000614509D0DFF818C1ACF1300C614503D0B1
:101EB000DFF80CC1ACF1180CD1F800C02CF0010C0B
:101EC000C1F800C0DFF8E4804FF0010C0168A8F110
:101ED0001808414546D0914244D0994242D0A1428F
:101EE00040D049453ED071453CD0B9423AD0334A02
:101EF0001832914236D0324A603A914232D0304A5A
:101F0000483A91422ED02E4A303A91422AD02C4A59
:101F1000183A914226D0594524D0514522D0A942A1
:101F200020D0B1421ED02A4A91421BD0284A1432F6
:101F3000914217D0264A2832914213D0244A3C328B
:101F400091420FD0224A503291420BD0204A643243
:101F5000914207D01E4A7832914203D01C4A8C32FB
:101F6000914218D1016E0A6822F480720A6090F8DA
:101F70005C20816D02F01F020CFA02F24A60D0E987
:101F800019124A60C16E31B10A6822F480720A6087
:101F9000D0E91C124A600022016D80F835C080F83B
:101FA000342001B188470020DCE600002800024010
:101FB000580002407000024088000240A000024029
:101FC0007004024088040240A0040240B8040240A9
:101FD0000854025870B5044600F044F90546601CE8
:101FE00002D004480078044400F03CF9401BA042B1
:101FF000FAD370BD00000020082802D10149012059
:1020000008707047260000204FF0B04110B5D1F89D
:102010008820024203D0C1F88800FFF7EDFF10BD11
:102020002DE9F84F03247D4D00234FF001094FF0B7
:10203000B04B4FF00F0AE9E009FA03F73A4076D0C7
:102040000E7906F00306012E01D0022E18D1D0F829
:1020500008C04FEA430ECE6804FA0EF82CEA080CCA
:1020600006FA0EF646EA0C068660D0F804C00E7931
:102070002CEA070CC6F300169E4046EA0C064660A2
:102080000E79F643B6070BD0C6684FEA43088F684F
:1020900004FA08FC26EA0C0607FA08F73743C7607B
:1020A0000E7906F00306022E12D1DE080F694FEA00
:1020B000437C00EB8606B646366A4FEADC6C0AFAC9
:1020C0000CF807FA0CF726EA08063743CEF820701A
:1020D0000F7906684FEA430807F0030704FA08FC83
:1020E00007FA08F726EA0C06374307604E6816F42D
:1020F000403F1CD04A4E376847F0020737603668C9
:102100009F0706F00206009623F0030606F1B0468C
:10211000B6463F0FD6F80864DFF808810AFA07FCD4
:10212000404526EA0C0603D14FF0000C41E06CE07C
:10213000DFF8F4C0604502D14FF0010C39E0DFF860
:10214000ECC0604502D14FF0020C32E0DFF8E0C095
:10215000604502D14FF0030C2BE0DFF8D8C060459A
:1021600002D14FF0040C24E0DFF8CCC0604502D16E
:102170004FF0050C1DE0DFF8C4C0604502D14FF000
:10218000060C16E0DFF8B8C0604502D14FF0070C2E
:102190000FE0DFF8B0C0604502D14FF0080C08E056
:1021A000DFF8A4C0604502D14FF0090C01E04FF008
:1021B0000A0C0CFA07FC4CEA060CCEF808C44F686F
:1021C000DBF80060FF0226EA020600D516435F46F0
:1021D000CBF80060D1F804C0DBF804605FEA8C2C17
:1021E00026EA020600D516437E606E684F6826EA2E
:1021F0000206BF0300D516436E602E684F6826EABC
:102200000206FF0300D516432E605B1C0A6832FAF3
:1022100003F67FF411AFBDE8F88F0000800000588E
:10222000F444025800000258000402580008025802
:10223000000C0258001002580014025800180258EE
:10224000001C025800200258002402580AB1816183
:1022500070470904FBE7000001480068000C704764
:102260000010005C014880687047000000000020FA
:1022700002488168027811448160704700000020A4
:10228000032010B500F0D4F801F0AEF80F4A104961
:1022900014681368C4F3032203F00F038A5CC95C5B
:1022A00002F01F0201F01F01D0400A4A20FA01F19A
:1022B0001160094908600F2000F010F808B10120F2
:1022C00010BD00F079F8002010BD0000184402583D
:1022D00096B10008100000200C00002070B50D4DD4
:1022E00004462878A0B14FF47A71B1FBF0F00A49A6
:1022F0000968B1FBF0F001F0D5FF48B9102C07D206
:1023000000222146501E00F073F800206C6070BD62
:10231000012070BD000000200C000020154BF0B51E
:10232000083B427813491A600B680A1F23F0010327
:102330000B6043681360057BC67A827A437B2D0766
:10234000847B45EA0665C77B90F809C0067A90F859
:1023500000E045EAC24040EA834040EA444040EAA7
:10236000074040EA0C2040EA460040EA0E000860C0
:10237000F0BD0000A0ED00E0BFF35F8F0448002136
:102380000368034A23F4803303607032116070479E
:1023900024ED00E0074A40F0010006497032106069
:1023A000086840F480300860BFF34F8FBFF36F8F31
:1023B0007047000024ED00E0054808B5016841F0D1
:1023C00002010160006800F00200009008BD0000FA
:1023D000F4440258002809DB410900F01F0289007B
:1023E000012001F1E0219040C1F800017047000098
:1023F0000E4BF0B41B680D46C3F30223C3F107066E
:10240000042E00D90426191D072901D2002300E05B
:10241000DB1E012404FA06F19C40491E2940641E7B
:10242000994014402143F0BC05F00ABF0CED00E0D8
:10243000064900F0070210B54FF6FF040868044B88
:10244000204040EA02201843086010BD0CED00E077
:102450000000FA05134970B50A68D243520705D542
:10246000096801F00701814213D118E00A6822F0DF
:10247000070202430A60FFF7F5FE0A4D4FF47A7631
:102480000446083D07E000BFFFF7ECFE001BB0422A
:1024900001D9012070BD2868C0438004F4D4002015
:1024A00070BD00000C48025810B500F057FF0549F8
:1024B0000968054AC1F30211515C01F01F01C840CF
:1024C00010BD00002044025896B10008494930B5BB
:1024D000484C0B1D0A68143409681D68246802F012
:1024E0000303C5F30012C1F30531C4F3CC04002982
:1024F00014FB02F200EE102AF8EE400A75D03F4AB3
:102500009FED3D1AB7EE000A6BB1DFED3D1A012BCE
:1025100001D0022B64D002EE101A1168F8EE422AA4
:1025200081EEA22A21E0334C283C23689B0612D579
:10253000344B246801EE901A1168C4F3C104F8EE1C
:10254000612AE34001EE903AC1F30801F8EE611A06
:1025500081EEA22A0BE001EE901ADFED2B2A00BFDC
:10256000F8EE611A116882EEA12AC1F3080101EEAA
:10257000901A1168F8EE611A40EE811A71EE800A25
:1025800062EE200AC1F3462101EE101AB8EE411A9C
:1025900031EE001AC0EE811ABCEEE11A80ED001A8D
:1025A0001168C1F3064101EE101AB8EE411A31EE7E
:1025B000001AC0EE811ABCEEE11A80ED011A116812
:1025C000C1F3066101EE101AB8EE411A31EE000AAD
:1025D00080EE801ABCEEC10A80ED020A30BD04E034
:1025E00001EE901ADFED092ABAE70021016041608F
:1025F0008160F3E72844025800000039384402584B
:102600000024744A0090D0030024744C20BCBE4BBC
:10261000494930B5484C0B1D0A681C3409681D68CF
:10262000246802F00303C5F30022C1F30551C4F38B
:10263000CC04002914FB02F200EE102AF8EE400A46
:1026400075D03F4A9FED3D1AB7EE000A6BB1DFED42
:102650003D1A012B01D0022B64D002EE101A116832
:10266000F8EE422A81EEA22A21E0334C283C23686E
:102670009B0612D5344B246801EE901A1168C4F3FE
:10268000C104F8EE612AE34001EE903AC1F308017B
:10269000F8EE611A81EEA22A0BE001EE901ADFED4E
:1026A0002B2A00BFF8EE611A116882EEA12AC1F34D
:1026B000080101EE901A1168F8EE611A40EE811AD5
:1026C00071EE800A62EE200AC1F3462101EE101A73
:1026D000B8EE411A31EE001AC0EE811ABCEEE11AD2
:1026E00080ED001A1168C1F3064101EE101AB8EE30
:1026F000411A31EE001AC0EE811ABCEEE11A80EDEB
:10270000011A1168C1F3066101EE101AB8EE411A00
:1027100031EE000A80EE801ABCEEC10A80ED020A9A
:1027200030BD04E001EE901ADFED092ABAE700217E
:10273000016041608160F3E72844025800000039DD
:10274000404402580024744A0090D0030024744C82
:1027500020BCBE4B2DE9FE4F0546DFF8E48350F860
:10276000081B0024F64FC943019005F128002646B6
:1027700008F12408009008011DD4A86E50B1B0F5EE
:10278000801F0CD0B0F5001F0ED0B0F5401F1ED03A
:1027900001240FE0386840F40030386017E00198F9
:1027A000022102F085FD03E00098022102F010FEF4
:1027B00004000CD026462888C043C00523D4A86D49
:1027C00005281ED2DFE800F00C11161B1B00AA6EB4
:1027D000D8F8001021F440111143C8F80010EAE7BE
:1027E000386840F40030386009E00198002102F0B8
:1027F0005FFD03E00098002102F0EAFD044674B199
:1028000000E0012426462888C043800528D4E86DCE
:1028100080281ED00CDC90B140280ED114E0AA6DA7
:10282000D8F8001021F007011143C8F80010EAE7BA
:10283000C02813D0B0F5807F10D001240FE0386895
:1028400040F40030386009E00198002102F030FDCA
:1028500003E00098002102F0BBFD04469CB126462F
:102860002888DFF8DC92C04309F12C0940052CD4FC
:10287000D5F8A800B0F5800F20D00DDCA0B1B0F5E0
:10288000001F0FD115E0EA6DD8F8001021F4E071B7
:102890001143C8F80010E3E7B0F5C00F13D0B0F54E
:1028A000000F10D001240FE0386840F40030386089
:1028B00009E00198002102F0FBFC03E000980021F0
:1028C00002F086FD04467CB126462888C0430005F8
:1028D0002DD4D5F8AC00B0F1007F21D00EDCA8B12A
:1028E000B0F1807F10D116E0D5F8A820D9F80010FB
:1028F00021F460011143C9F80010E6E7B0F1407F10
:1029000013D0B0F1806F10D001240FE0386840F48C
:102910000030386009E00198002102F0C9FC03E0B2
:102920000098002102F054FD044674B12646286840
:10293000C04380011FD4E86CD8B110280FD02028E4
:1029400012D0302815D0012414E0D5F8AC20D9F8E5
:10295000001021F0E0611143C9F80010E7E7386882
:1029600040F40030386004E00198022102F0A0FC3D
:10297000044674B126462888C043C0042BD4286E70
:10298000B0F5005F20D00DDCA0B1B0F5805F0FD1B5
:1029900015E06B48EA6C2030016821F030011143EA
:1029A0000160E8E7B0F5405F13D0B0F5804F10D07C
:1029B00001240FE0386840F40030386009E00198E5
:1029C000002102F075FC03E00098002102F000FDF8
:1029D00004468CB126462888C043800429D4686EFA
:1029E000B0F5403F23D010DC08B3B0F5803F14D0E1
:1029F000B0F5003F0FD115E02A6ED8F8001021F491
:102A0000E0411143C8F80010E5E7B0F5802F0ED083
:102A1000B0F5A02F0BD001240AE00198012102F0AB
:102A200047FC03E00098012102F0D2FC044694B177
:102A300026462888C04340042AD4D5F8B000B0F117
:102A4000405F23D010DC08B3B0F1805F14D0B0F148
:102A5000005F0FD115E06A6ED8F8001021F4E02174
:102A60001143C8F80010E4E7B0F1804F0ED0B0F188
:102A7000A04F0BD001240AE00198012102F018FCBC
:102A800003E00098012102F0A3FC044674B126463D
:102A90002888C04300041FD4286FD8B1B0F1805FEC
:102AA0000ED0B0F1005F10D0012414E0D5F8B020B2
:102AB000D9F8001021F0E0411143C9F80010E7E710
:102AC000386840F40030386004E00198012102F0D9
:102AD000EFFB044674B126462868C043C0011ED4EB
:102AE000A86CD0B101280ED0022811D0032814D030
:102AF000012413E02A6FD8F8001021F0405111434F
:102B0000C8F80010E8E7386840F40030386004E0A6
:102B10000198022102F0CCFB0446ACB1264628689D
:102B2000DFF81CB0C043ABF11C0B400252D4054887
:102B3000016841F480710160FFF794FB824611E067
:102B40002C44025800480258FA48AA6C016821F047
:102B5000030111430160E2E7FFF784FBA0EB0A00E9
:102B6000642835D8F4480068C005F5D58CBBDFF87B
:102B7000C4A3B5F8B4100AF1240ADAF8000001F48D
:102B8000407100F44070884211D0DAF80010DAF891
:102B9000002021F4407142F48032CAF80020DAF8B3
:102BA000002022F48032CAF80020CAF80010D5F8BC
:102BB000B400B0F5807F1AD1FFF754FB029012E009
:102BC000FFF750FB0299411A41F2883081420AD93D
:102BD000032426462878DFF85CA3C0430AF1080ADC
:102BE000C00721D03CE0DAF800008007E8D5D5F82E
:102BF000B410C1F30120032858460DD0016821F418
:102C00007C510160B5F8B420DAF80010C2F30B0271
:102C10001143CAF80010DDE7C84A036802EA11123E
:102C200023F47C511143ECE7E86F182816D005DC3B
:102C3000A0B1082808D0102804D10AE020280DD01F
:102C400028280BD001240AE00198012102F030FB72
:102C500003E00098012102F0BBFB044664B1264664
:102C60002878C04380071ED4A86F062819D2DFE851
:102C700000F0160C11161616EA6FDAF8001021F0A3
:102C800038011143CAF80010EAE70198012102F067
:102C90000FFB03E00098012102F09AFB04467CB18F
:102CA00000E0012426462878C04340071FD4D5F809
:102CB0009400062819D2DFE800F0160C111616163B
:102CC000AA6FDAF8001021F007011143CAF80010CA
:102CD000E9E70198012102F0EBFA03E000980121F5
:102CE00002F076FB0446A4B100E0012426462878D1
:102CF000C04380062BD4D5F89000B0F1405F24D0BB
:102D000011DC10B3B0F1805F15D0B0F1005F10D1CD
:102D100016E0D5F89420D9F8001021F007011143EE
:102D2000C9F80010E3E7B0F1804F0ED0B0F1A04F2A
:102D30000BD001240AE00198002102F0B9FA03E067
:102D40000098022102F044FB044694B126462878FC
:102D5000C04340062BD4D5F89C00B0F5406F24D07A
:102D600011DC10B3B0F5806F15D0B0F5006F10D145
:102D700016E0D5F89020DAF8001021F0E041114378
:102D8000CAF80010E3E7B0F5805F0ED0B0F5A05FA1
:102D90000BD001240AE00198002102F089FA03E037
:102DA0000098022102F014FB044694B126462878CC
:102DB000C04300062BD4D5F8A000B0F5C04F24D0F6
:102DC00011DC10B3B0F5005F15D0B0F5804F10D115
:102DD00016E0D5F89C20D9F8001021F4E0511143F9
:102DE000C9F80010E3E7B0F5004F0ED0B0F5204F62
:102DF0000BD001240AE00198002102F059FA03E007
:102E00000098022102F0E4FA044654B126462878DC
:102E1000C04300071ED4D5F88400B0F5805F0AD007
:102E20000FE0D5F8A020D9F8001021F4604111433B
:102E3000C9F80010EBE70098022102F0C9FA00B1CE
:102E40000126D5F88420DAF8001021F4405111430E
:102E5000CAF800102878C043C00613D4D5F89800EB
:102E6000B0F5807F05D10098022102F0B1FA00B1DF
:102E70000126D5F89820D9F8001021F440711143AB
:102E8000C9F800102868C043000316D4D5F8A40080
:102E900038B1B0F5803F09D0B0F5003F0BD0012428
:102EA0000AE00198002102F003FA03E000980221F1
:102EB00002F08EFA04468CB126462868C0434003CF
:102EC00022D4D5F88800B0F5801F11D0B0F5001FCE
:102ED00013D0B0F5401F15D0012414E0D5F8A4207C
:102EE000D9F8001021F440311143C9F80010E4E78B
:102EF000386840F40030386004E00098012102F0A6
:102F000067FA04465CB126462868C043C00323D450
:102F1000286DA8B1B0F5803F17D001241BE0D5F88B
:102F20008820DAF8001021F440111143CAF800108B
:102F3000EAE700004C44025800480258CFFFFF0067
:102F4000386840F40030386004E00198022102F053
:102F5000AFF90446E4B126462868C043800005D492
:102F60000098022102F034FA00B101262868C0431B
:102F700080031BD4D5F88000B0B1B0F5807F0FD0AE
:102F8000B0F5007F10D0B0F5407F0DD001240CE0EB
:102F90005A482A6D016821F4803111430160DBE752
:102FA000386840F400303860ECB326462868C043E7
:102FB000C00207D46A6FD8F8001021F00041114315
:102FC000C8F800102868C043C00008D4D5F8B8205D
:102FD000DBF8001021F480411143CBF80010286881
:102FE000C043800207D4EA6ED8F8001021F0807147
:102FF0001143C8F800102868C04340000CD4DBF827
:10300000001021F40041CBF80010DBF80010D5F8D7
:10301000BC201143CBF800102868C04308D43748BF
:103020006A6D016800E018E021F040511143016031
:103030002868C043000208D4D5F88C20DAF80010C4
:1030400021F440011143CAF8001028790024C0433C
:1030500000F0010020430AD00FE0D5F88020DAF814
:10306000001021F440711143CAF800109EE7019846
:10307000002102F01DF900B106462879C04300F096
:103080000200204305D10198012102F011F900B19D
:1030900006462879C04300F00400204305D101987A
:1030A000022102F005F900B106462879C04300F07C
:1030B0000800204305D10098002102F089F900B1F1
:1030C00006462879C04300F01000204305D100983F
:1030D000012102F07DF900B106462879C04300F0D5
:1030E0002000044304D10098022102F071F900B9D4
:1030F00016B10120BDE8FE8F0020FBE74C440258CA
:103100002DE9F05F04000F467ED0DFF83882D8F852
:10311000000000F00F00B8420CD2D8F8001021F0E7
:103120000F013943C8F80010D8F8000000F00F0074
:10313000B84269D12078844D40070AD520692968B2
:1031400001F07001884204D9296821F0700101431F
:10315000296020787C4E361D00070AD560693168E9
:1031600001F07001884204D9316821F070010143F7
:1031700031602078C0060AD5A069316801F4E061A9
:10318000884204D9316821F4E0610143316020783C
:10319000DFF8B4B180060BF1080B0CD5E169584695
:1031A000DBF8002002F07002914204D9026822F09C
:1031B00070020A430260207880070AD5E068296817
:1031C00001F00F01884204D9296821F00F01014361
:1031D00029602078C0073ED05B49A268286818396A
:1031E00020F47060104328606068022818D003281B
:1031F00019D00968012819D0490700294ADADFF8EF
:1032000048A1AAF1080A00E044E0DAF8002022F020
:1032100007020243CAF80020FFF724F8814612E0B3
:1032200009688903E9E709688901E6E7C905E4E770
:10323000FFF718F8A0EB090141F28830814202D96A
:103240000320BDE8F09F6168DAF8000000F0380064
:10325000B0EBC10FECD1207880070AD5E06829686F
:1032600001F00F01884204D2296821F00F010143C7
:103270002960D8F80010404601F00F01B9420BD97F
:10328000016821F00F0139430160006800F00F0070
:10329000B84201D00120D4E7207840070AD5206940
:1032A000296801F07001884204D2296821F0700178
:1032B00001432960207800070AD56069316801F070
:1032C0007001884204D2316821F0700101433160FD
:1032D0002078C0060AD5A069316801F4E06188420F
:1032E00004D2316821F4E061014331602078800626
:1032F0000CD5E1695846DBF8002002F070029142DB
:1033000004D2026822F070020A43026000F06CF8F6
:103310000E492A682B68C2F3032203F00F038A5C6C
:10332000C95C02F01F0201F01F01D040084A20FAD8
:1033300001F111600749086007480068BDE8F05FC7
:10334000FEF7CCBF002000521844025896B1000886
:10335000100000200C0000200400002030B500F018
:1033600043F80B4A0B490C4B15681468C5F303224C
:1033700004F00F048A5C095D02F01F0201F01F01D6
:10338000D040064A20FA01F119601060084630BDAD
:103390001844025896B10008100000200C000020CC
:1033A00000B5FFF7DBFF05490968054AC1F30211C3
:1033B000515C01F01F01C84000BD00001C440258D0
:1033C00096B1000800B5FFF7C9FF05490968054A2D
:1033D000C1F30221515C01F01F01C84000BD000093
:1033E0001C44025896B10008454970B54548096823
:1033F000434B103B11F0380208D00111082A03D0CA
:10340000102A0BD0182A0BD0084670BD19688906FF
:10341000FBD51968C1F3C101C84070BD3A4870BD01
:103420003749374D18310C1D24350A68096826685C
:103430002D6802F0030406F00102C1F30511C5F383
:10344000CC0515FB02F200EE102AB8EE400AE9B3F3
:103450002F4ADFED2E0AB7EE001A6CB1DFED2D1A00
:10346000012C01D0022C43D002EE101A1068F8EEA5
:10347000422A81EEA22A1EE01C68A40611D51B6810
:1034800001EE901A1168C3F3C103F8EE612AD84027
:1034900001EE900AC1F30800F8EE611A81EEA22A4B
:1034A0000BE001EE901ADFED1C2A00BFF8EE611A66
:1034B000106882EEA12AC0F3080001EE900AF8EE2F
:1034C000611A40EE201A31EE810A00E015E022EE8A
:1034D000000A1068C0F34620401C00EE900AF8EE87
:1034E000600A80EE201ABCEEC10A10EE100A70BD10
:1034F00001EE901ADFED092AD8E7002070BD000028
:10350000104402580090D00340787D01000000393B
:10351000304402580024744A0024744C20BCBE4B32
:103520002DE9F05F04007DD0FF4F2078FE4D183765
:10353000DFF8F493103DC00748D0D9F8000039688F
:1035400000F03800102815D0182803D101F003002E
:1035500002280FD06068B0F5803F12D010B1B0F5EE
:10356000A02F18D0286820F480302860286820F424
:10357000802009E02868800328D560680028D2D020
:1035800024E0286840F480302860606888B1FEF745
:1035900069FE064609E0286840F480202860F0E7CC
:1035A000FEF760FE801B64286FD828688003F7D57B
:1035B0000CE0FEF757FE064605E000BFFEF752FEA0
:1035C000801B6428F0D828688003F7D4207841F263
:1035D0000308D54E0C3E800769D5D9F8000039683C
:1035E00010F038000ED0182801D188070AD0E06802
:1035F00090B3296821F0190101432960FEF732FEDA
:10360000824631E02868400702D5E06800288AD069
:10361000E168286820F0190008432860FEF722FEC0
:10362000824607E0DFE000BFFEF71CFEA0EB0A00C9
:103630000228B9D828684007F6D500BFFEF70CFE6F
:1036400040451BD82069402812D0316821F47C31D4
:1036500041EA003030602AE018E000BFFEF702FEC9
:10366000A0EB0A0002289FD828684007F6D5E5E7B6
:10367000306820F47C3040F40030EBE7207C316887
:1036800021F0FE4141EA0060E4E70DE1286820F006
:1036900001002860FEF7E6FD824605E0FEF7E2FD48
:1036A000A0EB0A0002288DD828684007F6D42078BD
:1036B000C0065DD5D9F80000DFF86CB2396800F0BB
:1036C0003800ABF1040B082810D0182803D101F002
:1036D000030001280AD0E0690028286838D040F0AB
:1036E00080002860FEF7BEFD824623E02868C00502
:1036F00023D5E069802876D11FE0206A202821D0D8
:10370000316821F0F84141EA8060306030E000BF6C
:1037100094F82010DBF8002022F07C5242EA01618C
:10372000CBF8001024E000BFFEF79CFDA0EB0A00E0
:10373000022898D82868C005F6D5FEF78DFD4045CB
:10374000E6D8DAE7306820F0F84040F08040DCE767
:1037500020F080002860FEF785FD064605E000BFEA
:10376000FEF780FD801B02289DD82868C005F7D48D
:103770002078000729D56C486169643000298046AB
:10378000016811D041F001010160FEF76BFD0646B2
:1037900005E000BFFEF766FD801B0228C9D8D8F8F7
:1037A00000008007F6D510E021F001010160FEF76E
:1037B00059FD064605E000BFFEF754FD801B0228B8
:1037C00072D8D8F800008007F6D42078800623D578
:1037D000A0690028286810D040F480502860FEF7C7
:1037E00041FD064605E036E1FEF73CFD801B022860
:1037F0005AD828688004F7D50EE020F4805028605D
:10380000FEF730FD064604E0FEF72CFD801B022883
:103810004AD828688004F7D4207840074FD5DFF8CD
:103820000C81D8F8001041F48071C8F80010FEF740
:1038300019FD064605E000BFFEF714FD801B642855
:1038400032D8D8F80000C005F6D5374EA0686036EB
:1038500001280AD008B1052813D0306820F00100F3
:103860003060306820F0040002E0306840F0010071
:103870003060A06841F2883A90B1FEF7F3FC8046D0
:103880000AE0306840F004003060EEE7FEF7EAFC42
:10389000A0EB0801514507D830688007F6D50EE047
:1038A000FEF7E0FC804607E084E000BFFEF7DAFCAC
:1038B000A0EB080151457DD830688007F6D4606AD6
:1038C000B0B3DFF86480D9F8001008F120084FF693
:1038D000F87B08F10409C1F3C2010329A8F1040A25
:1038E00069D00228286820F08070286003D0FEF795
:1038F000B9FC044684E0FEF7B5FC064605E000BFCF
:10390000FEF7B0FC801B022877D828688001F7D426
:10391000E26A40F2F331386854F8283F884340EABD
:1039200002101843386004E010440258004802585E
:10393000B5E0217B434622894FF4FE0C208A4FF0EC
:10394000FE474902267D521E401EA1F50071C2F3BA
:1039500008088AB2761E0CEA004042EA08020243D6
:10396000504607EA06610A431A60DAF8002022F09E
:103970000102CAF80020D9F80020266A22EA0B02C8
:1039800042EAC602C9F80020DAF80010A26921F064
:103990000C011143CAF800100168E26921F002012C
:1039A00011430160016841F480310160016841F414
:1039B000003101E021E027E00160016841F480214D
:1039C0000160016841F001010160286840F08070E9
:1039D0002860FEF747FC044605E000BFFEF742FC06
:1039E000001B022809D828688001F7D557E000BFDE
:1039F000FEF738FC001B022802D90320BDE8F09F27
:103A000028688001F4D44AE039680128D8F8000019
:103A100021D0A26A01F0030393421CD1E26AC1F3F0
:103A200005118A4217D1216BC0F30802491E8A4250
:103A300011D1616BC0F34622491E91420BD1A16B9B
:103A4000C0F30642491E914205D1E16BC0F3066006
:103A5000491E814201D00120D0E7A16C4E46D9F821
:103A60000000C0F3CC00814219D0DAF800005546BE
:103A700020F00100CAF80000FEF7F4FB4FEA00074F
:103A8000FEF7F0FBB842FBD0A26C306820EA0B00D6
:103A900040EAC2003060286840F001002860002041
:103AA000ACE700002DE9F047040029D0594A4FF057
:103AB00000092068584B594D9042C4F8289006D010
:103AC000984204D0A84202D0E1680F2918D8E168D2
:103AD0004FF0010AE76B0831C9080AEB571671432A
:103AE000904205D0984203D0A84201D0082907D8B7
:103AF000904203D0984201D0A84204D1102902D9A3
:103B00000120BDE8F08794F8810020B9204684F8B0
:103B1000809000F085F8022084F881002068016818
:103B200021F0010101602068A1698268B1F1806F14
:103B300002F4F81110D16268B2F5800F01D01AB109
:103B40000AE0A26B22B107E0A26BB2F1805F03D161
:103B5000026842F4805202606068400209D5E06861
:103B6000072806D32068236D026822F480721A4366
:103B700003E02068026822F480720260A66AE069AD
:103B8000E26B25683043E3680A4310431843A8609A
:103B9000D4E90D02D4E90581636A25691843D4F894
:103BA00020C00A43266810432843A56DD4E901725A
:103BB000D4E9123140EA080040EA0C0038430843D7
:103BC000104318432843F060606868B92068816832
:103BD00021F4C05141F4006181602068816821F4C2
:103BE000C06141F4806181602068016D21F00101B4
:103BF00001656068400206D52068626DC16821F0E9
:103C000000411143C160C4F8849084F881A0002071
:103C100077E700000030014000380040003C0040E1
:103C2000F0B5B7B00446142130A8FCF7C2FBC021A0
:103C30006846FCF7BEFB3649022620680527334D4F
:103C40000024884223D1811418940020CDE900106B
:103C50006846FEF77FFD08B1FDF76EFD2B4810307A
:103C6000016841F480510160006800F48050359093
:103C7000286840F001002860286830A900F00100A1
:103C80003590E02030902348CDE9316438E0224976
:103C9000884239D1811418940020CDE9001068467B
:103CA000FEF758FD08B1FDF747FD184808300168D8
:103CB00041F480410160006800F48040359028683C
:103CC00040F004002860286800F00400359028685F
:103CD00040F002002860286830A900F0020035900A
:103CE00006203090CDE931640C48CDE93347FEF72A
:103CF00097F94FF480603090094830A9CDE93164DC
:103D0000CDE93347FEF78CF937B0F0BDE0440258F7
:103D100000300140000002580038004000080258FE
:103D2000000402582DE9F84F994617468A46044682
:103D3000FEF798FA064694F88100012839D1BAF1C5
:103D4000000F7CD0002FFCD094F88000012830D0E8
:103D5000A26800254FF0010884F88080032184F8D0
:103D60008110C4F88450C4F85CA06566A4F868505B
:103D7000656725672C34B2F5C02FA786E786E587EF
:103D800054F82C0D18D0C16821F4C02141F4003141
:103D9000C160206841686FF30F01394341602068BA
:103DA000016841F0010101606068B0F5800F08D042
:103DB0000CE00220BDE8F88F016841F40061016069
:103DC000E7E72068016841F400710160E0680F28AE
:103DD0001CD820E02068416989070BD5E16D09688E
:103DE0000162E06D001DE065B4F86200401EA4F8B9
:103DF00062000BE0FEF736FA811B494503D3B9F1A7
:103E0000FF3F03D09BE0B9F1000F31D0B4F862005E
:103E10000028DFD177E007282ED870E020684169BC
:103E200089071DD5B4F8621001290DD9E16B59B18C
:103E3000E16D09680162E06D001DE06500E07CE075
:103E4000B4F86200801E08E0E16D09880184E06D2D
:103E5000801CE065B4F86200401EA4F862000BE02C
:103E6000FEF700FA811B494503D3B9F1FF3F03D0A8
:103E700065E0B9F1000F62D0B4F862000028CDD13E
:103E800041E02068416989072DD5B4F86210032903
:103E90000CD9E16B402909D9E16D09680162E06D37
:103EA000001DE065B4F86200001F19E0B4F862106C
:103EB00001290BD9E16B49B1E16D09880184E06DFD
:103EC000801CE065B4F86200801E09E0E16D0978AD
:103ED00080F82010E06D401CE065B4F86200401EE0
:103EE000A4F862000BE0FEF7BDF9811B494503D33E
:103EF000B9F1FF3F03D022E0B9F1000F1FD0B4F8B1
:103F000062000028BDD100224B46082120460096C1
:103F100001F022FF28B1D4F8840040F02000C4F85A
:103F20008400204601F03AFE84F88180D4F88400B1
:103F300084F8805000283FF43DAF01203AE7204646
:103F400001F02CFED4F8841084F8805041F4807184
:103F5000C4F8841084F8818003202BE72DE9FF4FFB
:103F60000446C06B81B01D4617464009401C1FFA2D
:103F700080FBFEF777F9824694F881002E460128EF
:103F800035D1029800287CD0002FFCD0002DFAD02B
:103F900094F8800001282AD04FF0010984F880901D
:103FA00005224FF0000884F88120C4F884806766F9
:103FB000A4F86A50A4F868500299E165A4F8625028
:103FC000A4F86050C4F87080C4F874802068C16898
:103FD00021F4C021C160AC492068884205D0AB49BA
:103FE000884202D0AA49884205D1102704E0022065
:103FF00005B0BDE8F08F082741686FF30F01294332
:1040000041602068016841F0010101606068B0F51D
:10401000800F04D12068016841F400710160E068FC
:104020000F284CD9BF0838E020684169890710D5AE
:104030007EB1F119A9420CD9E16D09680162E06D08
:10404000001DE065B4F86200401EA4F86200B4F8F8
:1040500062602068416905B34269D20703D15D45BA
:1040600010D209040ED5006B616E0860606E001DF1
:104070006066B4F86A00401EA4F86A00B4F86A509A
:104080000BE0EEE0FEF7EEF8A0EB0A010E9881429D
:1040900002D3401C01D004E018B156EA0500C3D198
:1040A000C6E0204601F07AFDD4F8840084F88080D0
:1040B00040F48070C4F8840084F88190E0E0072820
:1040C00079D97F084BE020684169890710D57EB116
:1040D000F119A9420CD9E16D09880184E06D801CB9
:1040E000E065B4F86200401EA4F86200B4F86260B3
:1040F000206841691DB34269D20709D0008E616E04
:104100000880606E801C6066B4F86A00401E12E091
:104110005D4515D20A0413D5008E616E0880606E6D
:10412000801C60662168098E0180606E801C60665C
:10413000B4F86A00801EA4F86A00B4F86A500EE071
:10414000012D01D18904D9D4FEF78CF8A0EB0A0126
:104150000E98814202D3401C01D084E060B356EA3D
:104160000500B0D164E020684169890711D586B1A6
:10417000F119A9420DD9E16D097880F82010E06DA0
:10418000401CE065B4F86200401EA4F86200B4F878
:1041900062602068416975B14269D2070DD000BFE5
:1041A00090F83000616E0870606E401C6066B4F874
:1041B0006A00401E24E038E055E05D4525D20A043F
:1041C00023D590F83000616E0870606E401C606608
:1041D000216891F830100170606E401C60662168A3
:1041E00091F830100170606E401C6066216891F893
:1041F00030100170606E401C6066B4F86A00001FE9
:10420000A4F86A00B4F86A500FE0042D02D211F449
:10421000C04FC5D1FEF726F8A0EB0A010E988142E7
:1042200002D3401C01D01EE0E8B156EA05009AD145
:104230000E9B002208212046CDF800A001F08CFD45
:1042400028B1D4F8840040F02000C4F8840020464F
:1042500001F0A4FC84F88190D4F8841084F8808064
:1042600081B10120C4E6204601F098FCD4F88420F6
:1042700084F8808042F48072C4F8842084F88190AD
:104280000320B5E60020B3E60030014000380040CE
:10429000003C0040024A136883430B43136070479D
:1042A00004040058401EB0F1807F10B501D30120F6
:1042B00010BD4FF0E02460610F21601703F0C0FFD4
:1042C0000020A0610721216110BD30B590F8841055
:1042D000012918D0012280F884202421C0F88810F8
:1042E0000022202401680B680D6823F0005325F09C
:1042F00001050D60426601680B60C0F8884080F8D7
:104300008420104630BD022030BD7047704770B524
:10431000044690F8840001281DD0012284F88420EE
:104320002420C4F8880020680568026822F0010291
:1043300002602068826822F060620A438260204640
:1043400003F014F82268202100201560C4F88810BA
:1043500084F8840070BD022070BD70B5044690F8EA
:10436000840001281DD0012284F884202420C4F870
:10437000880020680568026822F001020260206857
:10438000826822F060420A438260204602F0EEFF1B
:104390002268202100201560C4F8881084F8840069
:1043A00070BD022070BD7047704770472DE9F04125
:1043B00007680025044640F60F030226F8693968AD
:1043C000BA6818420AD183067ED501F0200302F0B4
:1043D000805C53EA0C0377D0616F7EE1D44BDFF849
:1043E00054C3134001EA0C0C53EA0C0C6CD05FEA86
:1043F000C07C0CD05FEAC15C09D54FF0010CC7F856
:1044000020C0D4F8907047F00107C4F89070870777
:1044100009D5D70707D027683E62D4F8906046F0E8
:104420000406C4F8906046070AD5D60708D0276866
:1044300004263E62D4F8906046F00206C4F890600C
:1044400006070CD501F020061E4308D02668082375
:104450003362D4F8903043F00803C4F89030030579
:104460000BD54B0109D526684FF400633362D4F8AD
:10447000903043F02003C4F89030D4F89030002BF3
:104480003DD0800609D501F0200002F0805108439C
:1044900003D0616F09B1204688472168D4F89000A5
:1044A0008968490602D410F0280F2AD0204603F06C
:1044B00041F82068806840061ED52068083050E822
:1044C000001F21F0400100E021E040E80012002A36
:1044D000F3D1D4F8800078B197490165D4F8800011
:1044E000FDF736FC00280AD0D4F88000016D00E00A
:1044F0002046BDE8F04108472046FFF756FFBDE8DB
:10450000F0812046FFF751FFC4F89050F7E7D4F848
:104510006CC02023BCF1010F7ED15FEAC06C7BD55B
:104520005FEAC16C78D51020386220688068400648
:1045300073D5D4F8802081491068884234D07F49EF
:104540001831884230D07D49303188422CD07B49A7
:104550004831884228D079496031884224D077494F
:104560007831884220D07549903188421CD07349F7
:10457000A831884218D07249884215D07049183144
:10458000884211D06E49303188420DD06C49483193
:10459000884209D06A496031884205D0684978313B
:1045A000884201D06649903140684FF4807700041A
:1045B000000C40D0B4F85C1081423CD9A4F85E00F5
:1045C000D069B8422FD0216851E8000F20F48070E4
:1045D00041E80002002AF6D12068083050E8001FA8
:1045E00021F0010140E80012002AF5D120680830CE
:1045F00050E8001F21F0400140E80012002AF5D1E8
:10460000C4F88C30E566206850E8001F21F01001E6
:1046100040E80012002A01E04AE019E0F3D1D4F8A2
:104620008000FDF7E5F92667B4F85C00B4F85E1089
:10463000401A81B208E0B4F85C1081427FF466AFA2
:10464000D069B842FAD126672046FFF75EFE56E7EA
:10465000B4F85C00B4F85E10B4F85E20401A81B281
:10466000002AF4D00029F2D0226852E8000F20F48A
:10467000907042E80007002FF6D1324F206800F119
:10468000080050E8002F02EA070240E8002CBCF1C5
:10469000000FF3D1C4F88C30E5666567226852E8F4
:1046A000000F20F0100042E80003002BF6D1CAE70B
:1046B000C60209D5560207D54FF48010386220464D
:1046C000BDE8F041FFF770BE06060AD501F080068E
:1046D00002F40002164304D0A16F00297FF408AF52
:1046E0000DE7420611D54A060FD52046016851E86C
:1046F000002F22F0400241E80024002CF6D1C0F83F
:104700008830856700F0B4F9F9E6020206D54A0060
:1047100004D52046BDE8F041FFF745BEC00196D55F
:10472000002994DA2046BDE8F041FFF7EFBD000014
:104730000100001020010004237500081000024051
:1047400010040240FEFFFFEF10B5040003D0D4F8C0
:10475000880010B107E0012010BD002084F884001B
:10476000204600F027F82420C4F88800206801685B
:1047700021F001010160A06A10B1204602F018FE8C
:10478000204603F069F90128E6D02068416821F449
:10479000904141602068816821F02A018160206891
:1047A000016841F0010101602046BDE8104002F0BF
:1047B00063BE00002DE9F041B6B00446142130A8D4
:1047C000FBF7F7FDC0216846FBF7F3FD4C4D0227D0
:1047D0004C492068083D4A4E002488422DD10020D3
:1047E0001E940221CDE900106846FDF7B3FF08B121
:1047F000FCF7A2FF306840F480103060306800F4AD
:1048000080103590286840F00200286028680E214A
:1048100000F0020035904FF440503090CDE93174F3
:10482000CDE93341384830A9FDF7FAFB00220221D7
:104830003520FDF7DDFD352030E034494FF0070825
:10484000884230D100201E940221CDE90010684634
:10485000FDF780FF08B1FCF76FFF306840F0804043
:104860003060306800F080403590286840F01000DB
:10487000286028684FF4C071309130A900F0100012
:10488000CDE931743394CDE934802148FDF7C8FB7C
:10489000002202215220FDF7ABFD5220FDF79AFDC8
:1048A00036B0BDE8F0811B498842F9D100201F9441
:1048B0000121CDE900106846FDF74CFF08B1FCF777
:1048C0003BFF0F480830016841F0100101600068AB
:1048D00000F010003590286840F00100286028683A
:1048E0004FF4C061309130A900F00100CDE931747E
:1048F0003394CDE934800848FDF792FBD0E70000FF
:10490000E84402580050004000040258007800407B
:1049100000100258001001400000025830B4D0F8D6
:104920008C30202B02D0022030BC7047A9B1A2B13C
:104930000B4D00240368C466AB420BD05B681B02BE
:1049400008D5046854E8003F43F0806344E800352C
:10495000002DF6D130BC03F055BA0120E4E7000089
:10496000000C005810B500680E4A0F49904208D15B
:1049700009790E4800F032FE0B4901220C48091D4E
:104980000AE00C4A90420BD149790B4800F026FE10
:10499000054901220948491DBDE81040FFF7BEBF87
:1049A00010BD00000050004014000020480300200B
:1049B0008C010020007800404C04002020020020E0
:1049C0002DE9F8430446D0F88800984616460D466F
:1049D000202802D00220BDE8F883A5B19EB10021B5
:1049E000C4F890102120C4F888001834FDF73AFC70
:1049F000814654F8100CA687E6872027183CB0F5AE
:104A0000805F02D003E00120E5E7206910B12E4667
:104A1000002510E000260EE08021204603F07AFAFF
:104A2000C0B9DEB116F8010B21688862B4F85600EF
:104A3000401EA4F85600B4F856004B464FF0000252
:104A4000CDF800800028E7D14FF04001204603F068
:104A500061FA48B1C4F888700320BCE735F8020B4E
:104A60002168C0F30800E0E7C4F888700020B2E7CE
:104A7000704700001B49002010B5A1F80001A1F803
:104A8000020101F58271A1F80001A1F802010246BC
:104A900015490870487005213520FDF7A9FC35201F
:104AA000FDF798FC002205215220FDF7A1FC5220C1
:104AB000FDF790FC0C4901220C48091DFFF72EFF61
:104AC000094901220A48491DFFF728FF09A000F003
:104AD00031F846F2666000F049F8BDE8104008A0E1
:104AE000FCF7FABD48030020140000208C010020D0
:104AF000200200207061676520696E697400000003
:104B00005B484D495D20484D49E6A8A1E59D97E5E4
:104B1000889DE5A78BE58C96E5AE8CE688902C20E9
:104B2000E7AD89E5BE85E68C87E4BBA42E2E2E0D6D
:104B30000A00000038B50446FBF746FC09A182B222
:104B400064230868214600900748FFF739FF0648AC
:104B5000642303226946FFF733FF6420FDF73AFA26
:104B600038BD0000FFFFFF008C01002008B5010ADE
:104B700064238DF8001002228DF801006946044874
:104B8000FFF71EFF010002D002A0FCF7A5FD08BD43
:104B9000200200205B55415254375D202A2A2A20EA
:104BA0005472616E736D6974204641494C454421CD
:104BB000207265743D25640D0A0000007CB5384CF8
:104BC0002078F0B14BE0374800216A4600F0F4FC51
:104BD0003448012101AA00F0EFFC9DF800109DF877
:104BE000040040EA0125284600F079F800282D4805
:104BF000694604D000F0CCFC2A4801A922E000F06C
:104C0000C7FC284800F0FBFC0228DCD222E0264842
:104C100000216A4600F0D0FC2348012101AA00F0DF
:104C2000CBFC9DF800109DF8040040EA01252846C1
:104C300000F055F800281C48694609D000F0A8FC8F
:104C4000194801A900F0A4FC2846FCF765FC7CBDCE
:104C500000F09EFC144800F0D2FC0228D7D2207845
:104C6000082815D2DFE800F004050508080B0E112E
:104C7000EDE702F011FA7CBD01F07CFF7CBD02F093
:104C8000ABF97CBD02F0A0F87CBD01F08FFD7CBDCE
:104C9000014606A0FCF720FD0020207060707CBD5E
:104CA00014000020480300204C0400205B484D49BC
:104CB0005D203E3E2053544154453A20554E4B4EC4
:104CC0004F574E282564292C207265736574207413
:104CD0006F2049444C450D0A00000000FEE740F2F9
:104CE00001129042A0F2011116D007DC102813D057
:104CF000112811D0B0F5807F0CD10DE0A1F58071A5
:104D0000013909D0A1F58071013905D0A1F5807173
:104D1000013901D00020704701207047044905483F
:104D200010B5FCF741FE0249491E087010BD000095
:104D300065000020500000202DE9F04F87B01421BD
:104D40006846FBF736FB5448016841F0800101607A
:104D5000016801F080010591016841F004010160E2
:104D6000016801F004010591016841F00101016051
:104D7000016801F001010591016841F01001016035
:104D8000016801F010010591016841F00201016024
:104D9000016801F002010591016841F0080101601C
:104DA00000680022DFF8F490012100F0080005906F
:104DB0004846FDF74BFA012248460821FDF746FA1E
:104DC000DFF8DCA0012207215046FDF73FFADFF8AB
:104DD000D4B043F61878002241465846FDF736FA1B
:104DE000314800223821FDF731FA002569460124B7
:104DF00000944846CDE901450395FDF711F90326D6
:104E0000694608274846CDE90074CDE90246FDF71A
:104E100007F902206946CDE90064CDE90240504619
:104E2000FDF7FEF804206946CDE90004CDE902460D
:104E30005046FDF7F5F84FF404100097CDE9010452
:104E400069465046FDF7ECF8CDF800806946CDE99B
:104E5000014558460395FDF7E3F8382069468DE88B
:104E6000310011480395FDF7DBF80021E006FFF75C
:104E700011FA00212006FFF70DFA00216006FFF766
:104E800009FA002201210920FDF7B2FA0920FDF7F5
:104E9000A1FA07B0BDE8F08FE044025800080258BC
:104EA00000000258000C0258000402582DE9F0419D
:104EB000154807254FF08042124F00219411C0E998
:104EC000021513118361C0E90414C0E9072141628E
:104ED00016128162C162C0E90D21C163016441649F
:104EE0008164C164016541658165C0E90076FEF7B2
:104EF000D9FD002803D0BDE8F041FCF71DBCBDE89A
:104F0000F0810000003001407C0000202DE9F041DC
:104F100017484FF48007DFF854C00021FA00072635
:104F2000C0F800C04FF0A043C0E90362C0E90171BE
:104F3000C0E9073141625510540081625201C162DB
:104F4000C0E90D21C163016441648164C1640165EC
:104F500041658165C0E90554FEF7A4FD002803D032
:104F6000BDE8F041FCF7E8BBBDE8F0810038004047
:104F7000040100201848002110B5164C0C224FF4F3
:104F8000E1330460C0E90131C160C0E9041281610C
:104F9000C161016241628162FFF7D6FB08B1FCF793
:104FA000CBFB0D480021FFF7D8F908B1FCF7C4FB93
:104FB00009480021FFF7ABF908B1FCF7BDFB064833
:104FC000FFF783F9002803D0BDE81040FCF7B4BB1D
:104FD00010BD0000005000408C0100201848002146
:104FE00010B5164C0C224FF4E1330460C0E90131D6
:104FF000C160C0E904128161C161016241628162E4
:10500000FFF7A2FB08B1FCF797FB0D480021FFF763
:10501000A4F908B1FCF790FB09480021FFF777F9E4
:1050200008B1FCF789FB0648FFF74FF9002803D0C9
:10503000BDE81040FCF780BB10BD000000780040C8
:10504000200200201848002110B5164C0C224FF405
:10505000E1330460C0E90131C160C0E9041281613B
:10506000C161016241628162FFF76EFB08B1FCF72A
:1050700063FB0D480021FFF770F908B1FCF75CFBFA
:1050800009480021FFF743F908B1FCF755FB064832
:10509000FFF71BF9002803D0BDE81040FCF74CBB1C
:1050A00010BD000000100140B4020020FEE7FEE742
:1050B0007CB54FF4FA751446104A2B4600F018FAE6
:1050C0000E48294602F0C8FF0C48FCF775FB0C4857
:1050D0001422CDE90004192104F52035A0F5006360
:1050E000084800F017F808480A22CDE90005A0F5A5
:1050F00000630648114600F00DF87CBD00DF052472
:10510000B0BD0008D0E60524B0CD0008A0EE05240F
:10511000704700002DE9FF4F85B09B4614460D46B1
:105120004FF000085F480599002708EB48020391FB
:10513000C2EBC81100EB011A16E0002610E000BF18
:1051400007FB006900963B46CDE9015403984246AF
:105150005946FCF78BFA0AEB8900761C80ED000AB1
:10516000A6422046ECDB7F1CAF42E6DB08F10108DB
:10517000B8F1080FD6DB4FF0000B002030E000271D
:105180002AE000BF0BEB4B024648C2EBCB114FF0BD
:1051900000084646039100EB011A0097CDE901543F
:1051A000129950464B463246FCF760FAB5EEC00AFB
:1051B000F1EE10FA04DD0120B040404400F0FF0899
:1051C000761C082EE9DB0398374909FB041107EB2D
:1051D00080027F1C01F80280A742D3DB09F10100A5
:1051E000A8428146CBDB0BF1010BBBF1080FC4DBFE
:1051F00004204FF0000B0090E81FDE4603900021D2
:1052000044E0E01F029000203BE000BF139A0EEB49
:105210004E03C3EBCE17814602EB8B0A224A9FED69
:10522000230A02EB87022646019200220AEB820340
:10523000521CFF2A83ED000AF8DD0023CF1800225C
:10524000B7EE000AAF4209EB020C0FDAB4450DDAF3
:1052500007FB06CCDDF8048018F80CC00AEB8C0CB8
:10526000DCED000A70EE800ACCED000A521C072A21
:10527000E8DB5B1C072BE1DB009A0BF5807B09EB7D
:105280000200029A9042C1DD0098014403988142D5
:10529000B7DD0EF1010EBEF1080FB0DB09B0BDE8BD
:1052A000F08F000030F00524B02E0624000000002E
:1052B0002DE9F047454D044689464FF0000A28681D
:1052C000C04380070AD0414E283E306820F08060FD
:1052D0003060FCF7C7FF0746B04608E00120BDE894
:1052E000F08700BFFCF7BEFFC01B022867D8D8F8C4
:1052F00000000001F6D4206829684FF4FE0721F46D
:105300007C313E0241EA00302860207AA389B4F85B
:1053100004C040022D4D2D495B1E227CACF1010CD6
:105320001035091DA0F5007080B2521ECCF3080C98
:1053300007EA034340EA0C00184306EA02621043FE
:1053400028600868626920F0C000104308600A689D
:10535000A06922F0200202430A60281D0A6822F098
:1053600010020A6002684FF6F873E4699A4342EA51
:10537000C40202600868B9F1000F40F010020A6030
:1053800011D00868B9F1010F11D040F40010086085
:10539000D8F80000444640F08060C8F80000FCF7F0
:1053A00061FF05460DE0086840F40020EFE740F497
:1053B0008010ECE7FCF756FF401B022801D90320C0
:1053C0008DE720680001F5D5504688E7284402584B
:1053D0002DE9F047454D044689464FF0000A2868FC
:1053E000C04380070AD0414E283E306820F08050EC
:1053F0003060FCF737FF0746B04608E00120BDE803
:10540000F08700BFFCF72EFFC01B022867D8D8F832
:1054100000008000F6D4208829684FF4FE0721F0B0
:105420007C713E0241EA00502860207AA389B4F8DA
:1054300004C040022D4D2D495B1E227CACF1010CB5
:105440001835091DA0F5007080B2521ECCF3080C6F
:1054500007EA034340EA0C00184306EA02621043DD
:1054600028600868626920F44060104308600A6898
:10547000A06922F4007202430A60281D0A6822F41F
:1054800080720A6002684FF6F873E4699A4342EA50
:10549000C40202600868B9F1000F40F480720A602B
:1054A00011D00868B9F1010F11D040F08070086088
:1054B000D8F80000444640F08050C8F80000FCF7DF
:1054C000D1FE05460DE0086840F48000EFE740F4A7
:1054D0000000ECE7FCF7C6FE401B022801D90320C0
:1054E0008DE720688000F5D5504688E728440258AB
:1054F000F0B5994210D100210BE000BF50F82140D7
:1055000002EB8105491C00EE104AB8EEC00A85ED99
:10551000000A9942F2DBF0BD4C1E5D1E00EE104AFF
:1055200000EE905A0025B8EEC00AF8EEE00A80EED0
:10553000201A2AE000EE105AB8EEC00A60EE010A06
:10554000BDEEE00A10EE106A741C8C4200DB4C1EAB
:1055500000EE106A50F8247050F8264002EB8506E1
:10556000B8EEC02A01EE907A00EE104A6D1C70EE83
:10557000C20AF8EEE11AB8EEC02AB8EEC00A71EE1F
:10558000C21A00EEA10A86ED000A9D42D2DBF0BDF0
:10559000B0F80021B0F802319A4201D101207047E1
:1055A000B0F80221825C0A70B0F80211491CC9B23D
:1055B000A0F802110020704770B516460C4605464B
:1055C00000F01DF8A04201D8012070BDB5F802011D
:1055D0002044C0B2285C3070002070BDB0F80021BB
:1055E000B0F80231521CD2B2934201D1012070476F
:1055F000B0F80031C154A0F8002100207047B0F885
:105600000011B0F80201081AC0B270477CB541F62B
:10561000FF74FCF77FF80025FF2000F08DFB6D1C68
:105620000A2DF9DB00F0ACFA00208DF804004021CF
:105630008DF800108DF8010095228DF802000621EA
:105640008DF8030068468DF8052000F067FB00F038
:105650004FFB012806D0641E00F04AFB012801D050
:10566000002CF8D1FCF756F8FF2000F065FB02494A
:10567000012048707CBD00002000002010B56FF0B4
:105680007F4400BF00F034FB641EFF2801D0002CD3
:10569000F8DC10BD70B56FF07F450E46044600BFC4
:1056A00000F026FB6D1EFF2803D0FE2804D000204A
:1056B00070BD002DF4DCFAE72546641C00F018FBF1
:1056C000761E2870F8D200F013FB00F011FB0120C9
:1056D00070BD000070B50C460546FFF7CFFFFF28F0
:1056E00001D0FF2070BD284600F026FB200E00F000
:1056F00023FBC4F3074000F01FFBC4F3072000F0B6
:105700001BFBE0B200F018FB402D07D0482D07D05E
:10571000012000F011FB4C2D06D007E0952000E0A1
:10572000872000F009FB01E000F0E2FA5FF00A04D4
:1057300000F0DEFA0106D5D5641E14F0FF04F7D19F
:1057400070BD70B500240E460546FFF797FFFF2891
:1057500020D1304600F0F0FAFD2E17D04FF4007142
:10576000284600F0DBFA00F0C3FA00F0C1FA00F0BE
:10577000BFFA054600F01F00052803D0641CE4B200
:10578000402CF4D900F0B4FA0028FBD005F01F003B
:10579000052801D0002070BD012070BD2DE9F8431F
:1057A00010B10120BDE8F883DFF8248198F80000EB
:1057B000800702D598F80000F4E7FFF727FF00F014
:1057C000DFF9002540202946FFF784FF01286DD12D
:1057D000404C48204FF4D571FFF77CFF01280DD0D5
:1057E00000217720FFF776FF012840D800216920AB
:1057F000FFF770FF01283AD802253FE000266F46E8
:1058000000F076FA711CB855CEB2042EF8D39DF88C
:10581000020001284AD19DF80300AA2846D1460774
:1058200000217720FFF756FF012804D86920314670
:10583000FFF750FF18B1641E002CF1DC36E0002C9D
:1058400034DD00217A20FFF745FF78BB5FF00004CC
:1058500000F04EFA611C3855CCB2042CF8D39DF8F8
:105860000000400601D50C2520E004251EE001259E
:1058700001E0022D02D00021412007E00021772025
:10588000FFF728FF012804D800216920FFF722FF35
:1058900018B1641E002CECDC07E0002C05DD502064
:1058A0004FF40071FFF716FF00B10025444688F859
:1058B0000250FBF72FFF00F01BFA25B1207820F0F3
:1058C0000100207001E00020607020786AE700008D
:1058D00020000020FFFF0F007FB515460E4610B1D7
:1058E000042004B070BD4D48052E4FF0010404D0D3
:1058F0000078C00715D00320F3E7297829B10129E2
:1059000007D0022909D0042485E0002141700C460B
:1059100081E0FFF77BFE00247DE04078002450709A
:1059200079E000F02DF90B2E52D005DCEEB3012EFC
:1059300007D0022E6AD141E00C2E4CD00D2E65D13D
:1059400055E000214920FFF7C5FE78BB10216846CD
:10595000FFF7A0FE50B39DF800100120B0EB911F9F
:1059600009D19DF808209DF8091000EB0220084499
:105970000004800920E09DF805009DF80A409DF88C
:10598000091000F00F069DF808309DF8070001F09F
:1059900003019DF8062006EBD4149B0904EB41019A
:1059A00003EB800002F0030201E00CE02FE000EBCB
:1059B0008220401CC91F8840286016E000244FF454
:1059C0000070288023E0FFF759FEFF280DD01EE06D
:1059D0000021492001E000214A20FFF77BFEB0B9F9
:1059E00010212846FFF756FE88B100240FE0002161
:1059F0007A20FFF76FFE48B95FF0000400F078F9F5
:105A0000641CE4B2042C05F8010BF7D30424FBF763
:105A100081FE00F06DF9204663E7000020000020C1
:105A20002DE9F0411C4615460E4638B934B12148DF
:105A30000178C90704D00320BDE8F0810420FBE70A
:105A40008078400700D4550200F09AF8012C2946CE
:105A50004FF4007704D05220FFF73CFE70B11AE0FB
:105A60005120FFF737FEE0B939463046FFF712FE06
:105A7000B8B1FBF74FFE00F03BF918E0394630466D
:105A8000FFF708FE18B1641E06F50076F6D1002176
:105A90004C20FFF71FFEFBF73DFE00F029F924B96B
:105AA00005E0FBF737FE00F023F90120C4E70020F2
:105AB000C2E700002000002008B101207047014823
:105AC00000787047200000202DE9F0411C46164662
:105AD0000F4638B934B1294D2878C00704D00320C7
