:020000040800F2
:10000000B8140024B10200083F2E0008692B000834
:100010003D2E000861070008113A000800000000AA
:100020000000000000000000000000001F32000877
:100030006307000800000000412E0008213200087C
:10004000CF020008CF020008CF020008CF0200084C
:10005000CF020008CF020008CF020008CF0200083C
:10006000CF02000865070008CF020008CF02000891
:10007000CF020008CF020008CF020008CF0200081C
:10008000CF020008CF020008CF020008CF0200080C
:10009000CF020008CF020008CF020008CF020008FC
:1000A000CF020008CF020008CF020008CF020008EC
:1000B000CF020008CF020008CF020008CF020008DC
:1000C000CF020008CF020008CF020008CF020008CC
:1000D000CF020008CF020008CF020008CF020008BC
:1000E000CF020008CF02000800000000CF02000885
:1000F000CF020008CF020008CF020008CF0200089C
:10010000CF020008CF020008CF020008CF0200088B
:10011000CF020008CF020008CF020008CF0200087B
:10012000CF020008CF020008CF020008CF0200086B
:10013000CF020008CF020008CF020008CF0200085B
:1001400000000000000000000000000000000000AF
:10015000CF020008CF020008CF020008CF0200083B
:10016000CF020008CF020008CF020008CF0200082B
:10017000CF020008CF020008CF020008CF0200081B
:10018000CF020008CF020008CF020008CF0200080B
:10019000CF020008CF020008CF020008CF020008FB
:1001A000CF020008CF020008CF020008CF020008EB
:1001B000CF020008CF020008CF020008CF020008DB
:1001C000CF020008CF020008CF020008CF020008CB
:1001D000CF020008CF020008CF020008CF020008BB
:1001E000CF020008CF020008CF020008CF020008AB
:1001F000CF020008CF020008CF020008CF0200089B
:10020000CF020008CF020008CF020008CF0200088A
:10021000CF020008CF020008CF020008CF0200087A
:10022000CF020008CF020008CF0200080000000043
:10023000CF020008CF02000800000000CF02000833
:10024000CF020008CF020008CF020008CF0200084A
:10025000CF020008CF020008CF020008CF0200083A
:10026000CF020008CF020008CF020008CF0200082A
:10027000CF020008CF020008CF02000800000000F3
:10028000CF020008CF020008CF02000800000000E3
:1002900000000000CF020008DFF810D000F080F866
:1002A00000480047B53F0008AFF30080B8140024B1
:1002B000074880470748804707480047FEE7FEE7B2
:1002C000FEE7FEE7FEE7FEE7FEE7FEE7FEE7FEE706
:1002D00071070008CD320008990200082DE9F05F8F
:1002E0000546002092469B468846064681464024A5
:1002F0001BE0284641464746224600F041F8534657
:100300005A46C01A914110D311461846224600F0B1
:1003100016F82D1A67EB01084F46224601200021EE
:1003200000F00DF817EB00094E41201EA4F1010466
:10033000DFDC484631462A464346BDE8F09F202A86
:1003400004DB203A00FA02F1002070479140C2F12C
:10035000200320FA03F3194390407047D2B201E022
:1003600000F8012B491EFBD270470022F6E710B5BA
:1003700013460A4604461946FFF7F0FF204610BD13
:10038000202A04DB203A21FA02F00021704721FAEA
:1003900002F3D040C2F12002914008431946704751
:1003A000064C074D06E0E06840F0010394E80700C2
:1003B00098471034AC42F6D3FFF772FFE8450008C7
:1003C00008460008F0B587B014216846FFF7CDFF56
:1003D0001D48016841F008010160016801F0080151
:1003E0000591016841F001010160016801F001011E
:1003F0000591016841F002010160016801F002010C
:100400000591016841F0040101600068012401AA1E
:10041000009400F0040005900C4F00250226694668
:1004200082E87000384600F0F5F9CDE900646946CD
:10043000384600F0EFF908206946CDE90005384656
:1004400000F0E8F907B0F0BDE0440258000002589F
:1004500070B50546FFF7B6FF754C01220221204614
:1004600000F0EEFA01222046042100F0E9FA002211
:100470002046012100F0E4FA322000F087F9012241
:100480002046114600F0DCFA322000F07FF900220D
:100490002046022100F0D4FA00222046042100F078
:1004A000CFFA082003F056FD1121284602F080FE05
:1004B000082003F04FFD01222046042100F0C0FA7D
:1004C0002021284600F0DAF87328044609D0532C7E
:1004D00054D058A003F09EFA64A0214603F09AFA83
:1004E000FAE7642000F052F901222846412100F089
:1004F0000DF90A2003F02EFDE0222846422100F0EB
:1005000005F90A2000F042F910222846432100F0A4
:10051000FDF80A2003F01EFD40222846442100F089
:10052000F5F80A2003F016FD00222846452100F0C8
:10053000EDF80A2003F00EFDEC222846462100F0DB
:10054000E5F80A2003F006FD0F222846472100F0B7
:10055000DDF80A2003F0FEFC00222846482100F0C6
:10056000D5F80A2003F0F6FCEA222846492100F0DB
:10057000CDF80A2003F0EEFC032248E002222846D0
:10058000412100F0C3F80A2003F0E4FCE3222846EE
:10059000422100F0BBF80A2000F0F8F810222846AB
:1005A000432100F0B3F80A2003F0D4FC402228468F
:1005B000442100F0ABF80A2003F0CCFC05222846C9
:1005C000452100F0A3F80A2003F0C4FCEC222846E1
:1005D000462100F09BF80A2003F0BCFC0F222846BD
:1005E000472100F093F80A2003F0B4FC00222846CB
:1005F000482100F08BF80A2003F0ACFC02222846C8
:10060000492100F083F80A2003F0A4FC07222846C1
:100610004A2100F07BF80A2003F09CFC0C222846BB
:100620004B2100F073F8BDE870400A2003F092BC43
:100630000000025874686520646576696365206906
:1006400073206E6F74207265636F676E697A65647C
:100650002C706C6561736520636865636B207468DA
:1006600065206465766963650D0A00004552524F46
:10067000522049443A253032780D0A0070B5124DA7
:1006800000220C4606460421284600F0D9F92146EE
:10069000304602F08DFD082003F05CFC002130465E
:1006A00002F086FD082003F055FCFF21304602F0E1
:1006B0007FFD0446082003F04DFC0122284604215A
:1006C00000F0BEF9204670BD0000025870B50E4C17
:1006D000002204210546204600F0B2F9082003F06C
:1006E00039FC1021284602F063FD082003F032FC9B
:1006F00001222046042100F0A3F92046BDE8704005
:100700000122022100F09CB9000002582DE9F041BD
:10071000124C174600220D4604210646204600F0E2
:100720008FF92946304602F043FD082003F012FC01
:100730000021304602F03CFD082003F00BFC394656
:10074000304602F035FD082003F004FC2046BDE8E9
:10075000F0410122042100F073B9000000000258AA
:10076000FEE77047082000F049B872B6FEE70000C7
:10077000054805490839026842F00202026008682B
:100780008004FCD5704700000C48025870B5044640
:1007900000F062F90546601C02D004480078044469
:1007A00000F05AF9401BA042FAD370BD200000248B
:1007B000082803D0014603A003F02CB90E490120FC
:1007C00048707047556E6B6E6F776E204558544970
:1007D00020696E74657272757074207472696767CF
:1007E000657265643A204750494F5F50696E203DFD
:1007F0002025640D0A000000000000244FF0B041E5
:1008000010B5D1F88820024203D0C1F88800FFF764
:10081000CFFF10BD2DE9F84F03247D4D00234FF08D
:1008200001094FF0B04B4FF00F0AE9E009FA03F766
:100830003A4076D00E7906F00306012E01D0022E42
:1008400018D1D0F808C04FEA430ECE6804FA0EF86B
:100850002CEA080C06FA0EF646EA0C068660D0F87A
:1008600004C00E792CEA070CC6F300169E4046EA37
:100870000C0646600E79F643B6070BD0C6684FEA01
:1008800043088F6804FA08FC26EA0C0607FA08F702
:100890003743C7600E7906F00306022E12D1DE0838
:1008A0000F694FEA437C00EB8606B646366A4FEA8C
:1008B000DC6C0AFA0CF807FA0CF726EA080637434C
:1008C000CEF820700F7906684FEA430807F0030757
:1008D00004FA08FC07FA08F726EA0C063743076013
:1008E0004E6816F4403F1CD04A4E376847F0020766
:1008F000376036689F0706F00206009623F003066D
:1009000006F1B046B6463F0FD6F80864DFF8088116
:100910000AFA07FC404526EA0C0603D14FF0000C0A
:1009200041E06CE0DFF8F4C0604502D14FF0010C0B
:1009300039E0DFF8ECC0604502D14FF0020C32E044
:10094000DFF8E0C0604502D14FF0030C2BE0DFF888
:10095000D8C0604502D14FF0040C24E0DFF8CCC0D1
:10096000604502D14FF0050C1DE0DFF8C4C06045C2
:1009700002D14FF0060C16E0DFF8B8C0604502D196
:100980004FF0070C0FE0DFF8B0C0604502D14FF028
:10099000080C08E0DFF8A4C0604502D14FF0090C54
:1009A00001E04FF00A0C0CFA07FC4CEA060CCEF8FA
:1009B00008C44F68DBF80060FF0226EA020600D593
:1009C00016435F46CBF80060D1F804C0DBF8046042
:1009D0005FEA8C2C26EA020600D516437E606E681C
:1009E0004F6826EA0206BF0300D516436E602E68E4
:1009F0004F6826EA0206FF0300D516432E605B1CF3
:100A00000A6832FA03F67FF411AFBDE8F88F0000F0
:100A100080000058F44402580000025800040258B4
:100A200000080258000C0258001002580014025826
:100A300000180258001C02580020025800240258D6
:100A40000AB1816170470904FBE7000001480068B2
:100A5000000C70470010005C01488068704700007F
:100A600020000024024881680278114481607047A8
:100A700020000024032010B500F0D4F801F0AEF8F7
:100A80000F4A104914681368C4F3032203F00F03DC
:100A90008A5CC95C02F01F0201F01F01D0400A4AC3
:100AA00020FA01F11160094908600F2000F010F8E8
:100AB00008B1012010BD00F079F8002010BD000041
:100AC00018440258D8450008300000242C000024A7
:100AD00070B50D4D04462878A0B14FF47A71B1FB82
:100AE000F0F00A490968B1FBF0F001F0C1FE48B925
:100AF000102C07D200222146501E00F073F800206F
:100B00006C6070BD012070BD200000242C0000240A
:100B1000154BF0B5083B427813491A600B680A1F61
:100B200023F001030B6043681360057BC67A827A69
:100B3000437B2D07847B45EA0665C77B90F809C097
:100B4000067A90F800E045EAC24040EA834040EA75
:100B5000444040EA074040EA0C2040EA460040EAB0
:100B60000E000860F0BD0000A0ED00E0BFF35F8F55
:100B7000044800210368034A23F480330360703281
:100B80001160704724ED00E0074A40F0010006497B
:100B900070321060086840F480300860BFF34F8FF7
:100BA000BFF36F8F7047000024ED00E0054808B5E3
:100BB000016841F002010160006800F0020000904D
:100BC00008BD0000F4440258002809DB410900F088
:100BD0001F028900012001F1E0219040C1F80001CD
:100BE000704700000E4BF0B41B680D46C3F30223A0
:100BF000C3F10706042E00D90426191D072901D2C6
:100C0000002300E0DB1E012404FA06F19C40491E8B
:100C10002940641E994014402143F0BC02F00ABFF1
:100C20000CED00E0064900F0070210B54FF6FF0496
:100C30000868044B204040EA02201843086010BDB9
:100C40000CED00E00000FA05134970B50A68D243C4
:100C5000520705D5096801F00701814213D118E058
:100C60000A6822F0070202430A60FFF7F5FE0A4D08
:100C70004FF47A760446083D07E000BFFFF7ECFE2C
:100C8000001BB04201D9012070BD2868C043800418
:100C9000F4D4002070BD00000C48025810B500F0DC
:100CA00057FF05490968054AC1F30211515C01F07B
:100CB0001F01C84010BD000020440258D84500085C
:100CC000494930B5484C0B1D0A68143409681D6841
:100CD000246802F00303C5F30012C1F30531C4F325
:100CE000CC04002914FB02F200EE102AF8EE400AB0
:100CF00075D03F4A9FED3D1AB7EE000A6BB1DFEDAC
:100D00003D1A012B01D0022B64D002EE101A11689B
:100D1000F8EE422A81EEA22A21E0334C283C2368D7
:100D20009B0612D5344B246801EE901A1168C4F367
:100D3000C104F8EE612AE34001EE903AC1F30801E4
:100D4000F8EE611A81EEA22A0BE001EE901ADFEDB7
:100D50002B2A00BFF8EE611A116882EEA12AC1F3B6
:100D6000080101EE901A1168F8EE611A40EE811A3E
:100D700071EE800A62EE200AC1F3462101EE101ADC
:100D8000B8EE411A31EE001AC0EE811ABCEEE11A3B
:100D900080ED001A1168C1F3064101EE101AB8EE99
:100DA000411A31EE001AC0EE811ABCEEE11A80ED54
:100DB000011A1168C1F3066101EE101AB8EE411A6A
:100DC00031EE000A80EE801ABCEEC10A80ED020A04
:100DD00030BD04E001EE901ADFED092ABAE70021E8
:100DE000016041608160F3E7284402580000003947
:100DF000384402580024744A0090D0030024744CF4
:100E000020BCBE4B494930B5484C0B1D0A681C3408
:100E100009681D68246802F00303C5F30022C1F3CA
:100E20000551C4F3CC04002914FB02F200EE102A91
:100E3000F8EE400A75D03F4A9FED3D1AB7EE000A22
:100E40006BB1DFED3D1A012B01D0022B64D002EE15
:100E5000101A1168F8EE422A81EEA22A21E0334CE2
:100E6000283C23689B0612D5344B246801EE901A67
:100E70001168C4F3C104F8EE612AE34001EE903A30
:100E8000C1F30801F8EE611A81EEA22A0BE001EE2F
:100E9000901ADFED2B2A00BFF8EE611A116882EE7E
:100EA000A12AC1F3080101EE901A1168F8EE611A47
:100EB00040EE811A71EE800A62EE200AC1F34621EB
:100EC00001EE101AB8EE411A31EE001AC0EE811A86
:100ED000BCEEE11A80ED001A1168C1F3064101EE83
:100EE000101AB8EE411A31EE001AC0EE811ABCEEAB
:100EF000E11A80ED011A1168C1F3066101EE101AC2
:100F0000B8EE411A31EE000A80EE801ABCEEC10A3A
:100F100080ED020A30BD04E001EE901ADFED092AEF
:100F2000BAE70021016041608160F3E7284402587C
:100F300000000039404402580024744A0090D00355
:100F40000024744C20BCBE4B2DE9FE4F0546DFF853
:100F5000E48350F8081B0024F64FC943019005F1C3
:100F60002800264608F12408009008011DD4A86E28
:100F700050B1B0F5801F0CD0B0F5001F0ED0B0F509
:100F8000401F1ED001240FE0386840F40030386064
:100F900017E00198022101F055FF03E000980221BB
:100FA00001F0E0FF04000CD026462888C043C005AD
:100FB00023D4A86D05281ED2DFE800F00C11161B03
:100FC0001B00AA6ED8F8001021F440111143C8F894
:100FD0000010EAE7386840F40030386009E0019812
:100FE000002101F02FFF03E00098002101F0BAFF7B
:100FF000044674B100E0012426462888C0438005D9
:1010000028D4E86D80281ED00CDC90B140280ED189
:1010100014E0AA6DD8F8001021F007011143C8F8B8
:101020000010EAE7C02813D0B0F5807F10D001246B
:101030000FE0386840F40030386009E00198002182
:1010400001F000FF03E00098002101F08BFF04464F
:101050009CB126462888DFF8DC92C04309F12C09B0
:1010600040052CD4D5F8A800B0F5800F20D00DDCB9
:10107000A0B1B0F5001F0FD115E0EA6DD8F800104F
:1010800021F4E0711143C8F80010E3E7B0F5C00F98
:1010900013D0B0F5000F10D001240FE0386840F4F1
:1010A0000030386009E00198002101F0CBFE03E038
:1010B0000098002101F056FF04467CB1264628889E
:1010C000C04300052DD4D5F8AC00B0F1007F21D08D
:1010D0000EDCA8B1B0F1807F10D116E0D5F8A820C1
:1010E000D9F8001021F460011143C9F80010E6E7B7
:1010F000B0F1407F13D0B0F1806F10D001240FE029
:10110000386840F40030386009E00198002101F0AF
:1011100099FE03E00098002101F024FF044674B119
:1011200026462868C04380011FD4E86CD8B1102837
:101130000FD0202812D0302815D0012414E0D5F883
:10114000AC20D9F8001021F0E0611143C9F800107B
:10115000E7E7386840F40030386004E00198022185
:1011600001F070FE044674B126462888C043C004CE
:101170002BD4286EB0F5005F20D00DDCA0B1B0F507
:10118000805F0FD115E06B48EA6C2030016821F0D8
:10119000300111430160E8E7B0F5405F13D0B0F5CE
:1011A000804F10D001240FE0386840F400303860E0
:1011B00009E00198002101F045FE03E000980021BC
:1011C00001F0D0FE04468CB126462888C043800436
:1011D00029D4686EB0F5403F23D010DC08B3B0F5D9
:1011E000803F14D0B0F5003F0FD115E02A6ED8F83B
:1011F000001021F4E0411143C8F80010E5E7B0F514
:10120000802F0ED0B0F5A02F0BD001240AE001985A
:10121000012101F017FE03E00098012101F0A2FE78
:10122000044694B126462888C04340042AD4D5F801
:10123000B000B0F1405F23D010DC08B3B0F1805FA4
:1012400014D0B0F1005F0FD115E06A6ED8F800102D
:1012500021F4E0211143C8F80010E4E7B0F1804F19
:101260000ED0B0F1A04F0BD001240AE0019801216B
:1012700001F0E8FD03E00098012101F073FE04464F
:1012800074B126462888C04300041FD4286FD8B103
:10129000B0F1805F0ED0B0F1005F10D0012414E0F7
:1012A000D5F8B020D9F8001021F0E0411143C9F879
:1012B0000010E7E7386840F40030386004E0019837
:1012C000012101F0BFFD044674B126462868C043E1
:1012D000C0011ED4A86CD0B101280ED0022811D0B4
:1012E000032814D0012413E02A6FD8F8001021F04D
:1012F00040511143C8F80010E8E7386840F4003066
:10130000386004E00198022101F09CFD0446ACB174
:1013100026462868DFF81CB0C043ABF11C0B400226
:1013200052D40548016841F480710160FFF794FBD5
:10133000824611E02C44025800480258FA48AA6C30
:10134000016821F0030111430160E2E7FFF784FB2C
:10135000A0EB0A00642835D8F4480068C005F5D52C
:101360008CBBDFF8C4A3B5F8B4100AF1240ADAF88C
:10137000000001F4407100F44070884211D0DAF8A6
:101380000010DAF8002021F4407142F48032CAF8EB
:101390000020DAF8002022F48032CAF80020CAF8CF
:1013A0000010D5F8B400B0F5807F1AD1FFF754FBD8
:1013B000029012E0FFF750FB0299411A41F2883087
:1013C00081420AD9032426462878DFF85CA3C0436B
:1013D0000AF1080AC00721D03CE0DAF800008007D3
:1013E000E8D5D5F8B410C1F30120032858460DD034
:1013F000016821F47C510160B5F8B420DAF80010DE
:10140000C2F30B021143CAF80010DDE7C84A0368B3
:1014100002EA111223F47C511143ECE7E86F18281B
:1014200016D005DCA0B1082808D0102804D10AE0A5
:1014300020280DD028280BD001240AE00198012192
:1014400001F000FD03E00098012101F08BFD04464E
:1014500064B126462878C04380071ED4A86F0628AA
:1014600019D2DFE800F0160C11161616EA6FDAF83A
:10147000001021F038011143CAF80010EAE7019882
:10148000012101F0DFFC03E00098012101F06AFD79
:1014900004467CB100E0012426462878C04340077A
:1014A0001FD4D5F89400062819D2DFE800F0160CF6
:1014B00011161616AA6FDAF8001021F00701114371
:1014C000CAF80010E9E70198012101F0BBFC03E034
:1014D0000098012101F046FD0446A4B100E001247A
:1014E00026462878C04380062BD4D5F89000B0F16A
:1014F000405F24D011DC10B3B0F1805F15D0B0F1A3
:10150000005F10D116E0D5F89420D9F8001021F032
:1015100007011143C9F80010E3E7B0F1804F0ED086
:10152000B0F1A04F0BD001240AE00198002101F096
:1015300089FC03E00098022101F014FD044694B1F7
:1015400026462878C04340062BD4D5F89C00B0F539
:10155000406F24D011DC10B3B0F5806F15D0B0F51A
:10156000006F10D116E0D5F89020DAF8001021F0C5
:10157000E0411143CAF80010E3E7B0F5805F0ED0F8
:10158000B0F5A05F0BD001240AE00198002101F022
:1015900059FC03E00098022101F0E4FC044694B1F8
:1015A00026462878C04300062BD4D5F8A000B0F515
:1015B000C04F24D011DC10B3B0F5005F15D0B0F5EA
:1015C000804F10D116E0D5F89C20D9F8001021F4F6
:1015D000E0511143C9F80010E3E7B0F5004F0ED019
:1015E000B0F5204F0BD001240AE00198002101F052
:1015F00029FC03E00098022101F0B4FC044654B138
:1016000026462878C04300071ED4D5F88400B0F5DC
:10161000805F0AD00FE0D5F8A020D9F8001021F49F
:1016200060411143C9F80010EBE70098022101F076
:1016300099FC00B10126D5F88420DAF8001021F4D5
:1016400040511143CAF800102878C043C00613D493
:10165000D5F89800B0F5807F05D10098022101F0FF
:1016600081FC00B10126D5F89820D9F8001021F4AA
:1016700040711143C9F800102868C043000316D414
:10168000D5F8A40038B1B0F5803F09D0B0F5003FDF
:101690000BD001240AE00198002101F0D3FB03E004
:1016A0000098022101F05EFC04468CB126462868B1
:1016B000C043400322D4D5F88800B0F5801F11D074
:1016C000B0F5001F13D0B0F5401F15D0012414E071
:1016D000D5F8A420D9F8001021F440311143C9F8FD
:1016E0000010E4E7386840F40030386004E0009807
:1016F000012101F037FC04465CB126462868C0434E
:10170000C00323D4286DA8B1B0F5803F17D00124C1
:101710001BE0D5F88820DAF8001021F440111143BD
:10172000CAF80010EAE700004C440258004802588A
:10173000CFFFFF00386840F40030386004E00198C3
:10174000022101F07FFB0446E4B126462868C0432D
:10175000800005D40098022101F004FC00B10126AC
:101760002868C04380031BD4D5F88000B0B1B0F521
:10177000807F0FD0B0F5007F10D0B0F5407F0DD046
:1017800001240CE05A482A6D016821F4803111438C
:101790000160DBE7386840F400303860ECB326467F
:1017A0002868C043C00207D46A6FD8F8001021F03F
:1017B00000411143C8F800102868C043C00008D495
:1017C000D5F8B820DBF8001021F480411143CBF8A4
:1017D00000102868C043800207D4EA6ED8F80010D1
:1017E00021F080711143C8F800102868C043400000
:1017F0000CD4DBF8001021F40041CBF80010DBF82A
:101800000010D5F8BC201143CBF800102868C04365
:1018100008D437486A6D016800E018E021F04051B3
:10182000114301602868C043000208D4D5F88C2019
:10183000DAF8001021F440011143CAF800102879A9
:101840000024C04300F0010020430AD00FE0D5F887
:101850008020DAF8001021F440711143CAF800101A
:101860009EE70198002101F0EDFA00B106462879C3
:10187000C04300F00200204305D10198012101F08E
:10188000E1FA00B106462879C04300F00400204385
:1018900005D10198022101F0D5FA00B10646287958
:1018A000C04300F00800204305D10098002101F05A
:1018B00059FB00B106462879C04300F010002043D0
:1018C00005D10098012101F04DFB00B106462879B1
:1018D000C04300F02000044304D10098022101F02D
:1018E00041FB00B916B10120BDE8FE8F0020FBE7E7
:1018F0004C4402582DE9F05F04000F467ED0DFF81B
:101900003882D8F8000000F00F00B8420CD2D8F8A6
:10191000001021F00F013943C8F80010D8F800007A
:1019200000F00F00B84269D12078844D40070AD5F5
:101930002069296801F07001884204D9296821F0E2
:1019400070010143296020787C4E361D00070AD5BE
:101950006069316801F07001884204D9316821F072
:101960007001014331602078C0060AD5A069316852
:1019700001F4E061884204D9316821F4E061014357
:1019800031602078DFF8B4B180060BF1080B0CD57C
:10199000E1695846DBF8002002F07002914204D958
:1019A000026822F070020A430260207880070AD59C
:1019B000E068296801F00F01884204D9296821F004
:1019C0000F01014329602078C0073ED05B49A2681F
:1019D0002868183920F47060104328606068022875
:1019E00018D0032819D00968012819D049070029FF
:1019F0004ADADFF848A1AAF1080A00E044E0DAF880
:101A0000002022F007020243CAF80020FFF724F862
:101A1000814612E009688903E9E709688901E6E778
:101A2000C905E4E7FFF718F8A0EB090141F2883097
:101A3000814202D90320BDE8F09F6168DAF8000016
:101A400000F03800B0EBC10FECD1207880070AD548
:101A5000E068296801F00F01884204D2296821F06A
:101A60000F0101432960D8F80010404601F00F0132
:101A7000B9420BD9016821F00F01394301600068B8
:101A800000F00F00B84201D00120D4E720784007D1
:101A90000AD52069296801F07001884204D22968BA
:101AA00021F0700101432960207800070AD56069A0
:101AB000316801F07001884204D2316821F0700170
:101AC000014331602078C0060AD5A069316801F46D
:101AD000E061884204D2316821F4E0610143316061
:101AE000207880060CD5E1695846DBF8002002F02A
:101AF0007002914204D2026822F070020A4302602E
:101B000000F06CF80E492A682B68C2F3032203F038
:101B10000F038A5CC95C02F01F0201F01F01D04074
:101B2000084A20FA01F11160074908600748006877
:101B3000BDE8F05FFEF7CCBF002000521844025809
:101B4000D8450008300000242C0000242400002484
:101B500030B500F043F80B4A0B490C4B156814687C
:101B6000C5F3032204F00F048A5C095D02F01F0232
:101B700001F01F01D040064A20FA01F119601060FF
:101B8000084630BD18440258D845000830000024EB
:101B90002C00002400B5FFF7DBFF05490968054A62
:101BA000C1F30211515C01F01F01C84000BD0000EB
:101BB0001C440258D845000800B5FFF7C9FF054985
:101BC0000968054AC1F30221515C01F01F01C840B8
:101BD00000BD00001C440258D8450008454970B5B6
:101BE00045480968434B103B11F0380208D00111F9
:101BF000082A03D0102A0BD0182A0BD0084670BD33
:101C000019688906FBD51968C1F3C101C84070BDC8
:101C10003A4870BD3749374D18310C1D24350A68D4
:101C2000096826682D6802F0030406F00102C1F37A
:101C30000511C5F3CC0515FB02F200EE102AB8EE33
:101C4000400AE9B32F4ADFED2E0AB7EE001A6CB155
:101C5000DFED2D1A012C01D0022C43D002EE101A18
:101C60001068F8EE422A81EEA22A1EE01C68A40643
:101C700011D51B6801EE901A1168C3F3C103F8EE89
:101C8000612AD84001EE900AC1F30800F8EE611A0B
:101C900081EEA22A0BE001EE901ADFED1C2A00BFB4
:101CA000F8EE611A106882EEA12AC0F3080001EE76
:101CB000900AF8EE611A40EE201A31EE810A00E037
:101CC00015E022EE000A1068C0F34620401C00EE2A
:101CD000900AF8EE600A80EE201ABCEEC10A10EEFF
:101CE000100A70BD01EE901ADFED092AD8E7002036
:101CF00070BD0000104402580090D00340787D0170
:101D000000000039304402580024744A0024744C06
:101D100020BCBE4B2DE9F05F04007DD0FF4F207842
:101D2000FE4D1837DFF8F493103DC00748D0D9F8BE
:101D30000000396800F03800102815D0182803D1A9
:101D400001F0030002280FD06068B0F5803F12D088
:101D500010B1B0F5A02F18D0286820F4803028608A
:101D6000286820F4802009E02868800328D560686E
:101D70000028D2D024E0286840F4803028606068D1
:101D800088B1FEF769FE064609E0286840F4802025
:101D90002860F0E7FEF760FE801B64286FD8286893
:101DA0008003F7D50CE0FEF757FE064605E000BFBE
:101DB000FEF752FE801B6428F0D828688003F7D411
:101DC000207841F20308D54E0C3E800769D5D9F83A
:101DD0000000396810F038000ED0182801D18807AB
:101DE0000AD0E06890B3296821F019010143296005
:101DF000FEF732FE824631E02868400702D5E068EF
:101E000000288AD0E168286820F01900084328607B
:101E1000FEF722FE824607E0DFE000BFFEF71CFE71
:101E2000A0EB0A000228B9D828684007F6D500BF01
:101E3000FEF70CFE40451BD82069402812D03168BF
:101E400021F47C3141EA003030602AE018E000BF24
:101E5000FEF702FEA0EB0A0002289FD82868400780
:101E6000F6D5E5E7306820F47C3040F40030EBE74D
:101E7000207C316821F0FE4141EA0060E4E70DE199
:101E8000286820F001002860FEF7E6FD824605E0A4
:101E9000FEF7E2FDA0EB0A0002288DD82868400773
:101EA000F6D42078C0065DD5D9F80000DFF86CB212
:101EB000396800F03800ABF1040B082810D018285E
:101EC00003D101F0030001280AD0E0690028286846
:101ED00038D040F080002860FEF7BEFD824623E047
:101EE0002868C00523D5E069802876D11FE0206AE4
:101EF000202821D0316821F0F84141EA806030602B
:101F000030E000BF94F82010DBF8002022F07C5273
:101F100042EA0161CBF8001024E000BFFEF79CFD0F
:101F2000A0EB0A00022898D82868C005F6D5FEF76D
:101F30008DFD4045E6D8DAE7306820F0F84040F003
:101F40008040DCE720F080002860FEF785FD064633
:101F500005E000BFFEF780FD801B02289DD82868A1
:101F6000C005F7D42078000729D56C486169643032
:101F700000298046016811D041F001010160FEF79F
:101F80006BFD064605E000BFFEF766FD801B0228DC
:101F9000C9D8D8F800008007F6D510E021F001017B
:101FA0000160FEF759FD064605E000BFFEF754FD4F
:101FB000801B022872D8D8F800008007F6D4207859
:101FC000800623D5A0690028286810D040F48050EE
:101FD0002860FEF741FD064605E036E1FEF73CFDD0
:101FE000801B02285AD828688004F7D50EE020F418
:101FF00080502860FEF730FD064604E0FEF72CFD19
:10200000801B02284AD828688004F7D4207840072B
:102010004FD5DFF80C81D8F8001041F48071C8F872
:102020000010FEF719FD064605E000BFFEF714FD9F
:10203000801B642832D8D8F80000C005F6D5374E8A
:10204000A068603601280AD008B1052813D030688E
:1020500020F001003060306820F0040002E03068B9
:1020600040F001003060A06841F2883A90B1FEF77C
:10207000F3FC80460AE0306840F004003060EEE790
:10208000FEF7EAFCA0EB0801514507D8306880074D
:10209000F6D50EE0FEF7E0FC804607E084E000BFE6
:1020A000FEF7DAFCA0EB080151457DD830688007C7
:1020B000F6D4606AB0B3DFF86480D9F8001008F194
:1020C00020084FF6F87B08F10409C1F3C201032987
:1020D000A8F1040A69D00228286820F080702860DE
:1020E00003D0FEF7B9FC044684E0FEF7B5FC0646D3
:1020F00005E000BFFEF7B0FC801B022877D82868F7
:102100008001F7D4E26A40F2F331386854F8283F8E
:10211000884340EA02101843386004E01044025833
:1021200000480258B5E0217B434622894FF4FE0C5B
:10213000208A4FF0FE474902267D521E401EA1F51F
:102140000071C2F308088AB2761E0CEA004042EA27
:1021500008020243504607EA06610A431A60DAF8A9
:10216000002022F00102CAF80020D9F80020266AD7
:1021700022EA0B0242EAC602C9F80020DAF800108F
:10218000A26921F00C011143CAF800100168E2694C
:1021900021F0020111430160016841F480310160C6
:1021A000016841F4003101E021E027E001600168AD
:1021B00041F480210160016841F00101016028685B
:1021C00040F080702860FEF747FC044605E000BF41
:1021D000FEF742FC001B022809D828688001F7D5C9
:1021E00057E000BFFEF738FC001B022802D903208D
:1021F000BDE8F09F28688001F4D44AE039680128DE
:10220000D8F8000021D0A26A01F0030393421CD148
:10221000E26AC1F305118A4217D1216BC0F30802AB
:10222000491E8A4211D1616BC0F34622491E914278
:102230000BD1A16BC0F30642491E914205D1E16B5F
:10224000C0F30660491E814201D00120D0E7A16C95
:102250004E46D9F80000C0F3CC00814219D0DAF81C
:102260000000554620F00100CAF80000FEF7F4FB1C
:102270004FEA0007FEF7F0FBB842FBD0A26C3068D3
:1022800020EA0B0040EAC2003060286840F00100FC
:1022900028600020ACE700002DE9F047040029D0B9
:1022A000594A4FF000092068584B594D9042C4F8E4
:1022B000289006D0984204D0A84202D0E1680F29A5
:1022C00018D8E1684FF0010AE76B0831C9080AEB3A
:1022D00057167143904205D0984203D0A84201D0CE
:1022E000082907D8904203D0984201D0A84204D1CF
:1022F000102902D90120BDE8F08794F8810020B9A7
:10230000204684F8809000F085F8022084F881004F
:102310002068016821F0010101602068A1698268DC
:10232000B1F1806F02F4F81110D16268B2F5800F3C
:1023300001D01AB10AE0A26B22B107E0A26BB2F1A0
:10234000805F03D1026842F48052026060684002FC
:1023500009D5E068072806D32068236D026822F4B7
:1023600080721A4303E02068026822F480720260DF
:10237000A66AE069E26B25683043E3680A431043CC
:102380001843A860D4E90D02D4E90581636A256980
:102390001843D4F820C00A43266810432843A56D8B
:1023A000D4E90172D4E9123140EA080040EA0C0095
:1023B00038430843104318432843F060606868B905
:1023C0002068816821F4C05141F400618160206877
:1023D000816821F4C06141F4806181602068016DF1
:1023E00021F0010101656068400206D52068626D38
:1023F000C16821F000411143C160C4F8849084F8A1
:1024000081A0002077E70000003001400038004044
:10241000003C0040F0B5B7B00446142130A8FDF7E9
:10242000A4FFC0216846FDF7A0FF364902262068B8
:102430000527334D0024884223D1811418940020AD
:10244000CDE900106846FEF77FFD08B1FEF78DF973
:102450002B481030016841F480510160006800F49D
:1024600080503590286840F001002860286830A925
:1024700000F001003590E02030902348CDE9316430
:1024800038E02249884239D1811418940020CDE9DE
:1024900000106846FEF758FD08B1FEF766F91848C7
:1024A0000830016841F480410160006800F4804018
:1024B0003590286840F004002860286800F0040087
:1024C0003590286840F002002860286830A900F0A4
:1024D0000200359006203090CDE931640C48CDE9FA
:1024E0003347FEF797F94FF480603090094830A9E0
:1024F000CDE93164CDE93347FEF78CF937B0F0BD53
:10250000E04402580030014000000258003800400A
:1025100000080258000402582DE9FF4F0446C06B22
:1025200017461D4683B042092068521C00F1200165
:1025300030301FFA82FBCDE90001FEF78DFA8246AA
:1025400094F881002E46012835D1049800287CD0CB
:10255000002FFCD0002DFAD094F8800001282AD05A
:102560004FF0010984F8809005224FF0000884F8AC
:102570008120C4F884806766A4F86A50A4F8685083
:102580000499E165A4F86250A4F86050C4F8708022
:10259000C4F874802068C16821F4C021C160AD49CD
:1025A0002068884205D0AC49884202D0AB498842B5
:1025B00005D1102704E0022007B0BDE8F08F0827FE
:1025C00041686FF30F01294341602068016841F0C1
:1025D000010101606068B0F5800F04D120680168D6
:1025E00041F400710160E0680F284CD9BF0838E061
:1025F00020684169890710D57EB1F119A9420CD92B
:10260000E16D09680162E06D001DE065B4F86200EB
:10261000401EA4F86200B4F862602068416905B306
:102620004269D20703D15D4510D209040ED5006B73
:10263000616E0860606E001D6066B4F86A00401E3E
:10264000A4F86A00B4F86A500BE0F0E0FEF704FA70
:10265000A0EB0A011098814202D3401C01D004E093
:1026600018B156EA0500C3D1C8E0204600F00AFDC3
:10267000D4F8840084F8808040F48070C4F884002A
:1026800084F88190E2E007287BD97F084EE020683B
:102690004069800711D586B1F019A8420DD9E06DC7
:1026A000018801980180E06D801CE065B4F862004B
:1026B000401EA4F86200B4F86260216848692DB336
:1026C0004969C9070AD000980088616E0880606E69
:1026D000801C6066B4F86A00401E13E05D4516D2A7
:1026E000010414D500980088616E0880606E801C1B
:1026F0006066009909880180606E801C6066B4F88D
:102700006A00801EA4F86A00B4F86A500EE0012D39
:1027100001D18004D7D4FEF79FF9A0EB0A011098ED
:10272000814202D3401C01D083E058B356EA050031
:10273000ADD163E020684169890711D586B1F119EF
:10274000A9420DD9E16D097880F82010E06D401C98
:10275000E065B4F86200401EA4F86200B4F862605C
:10276000206841696DB14269D2070CD090F8300001
:10277000616E0870606E401C6066B4F86A00401EAE
:1027800024E038E055E05D4525D20A0423D590F8D1
:102790003000616E0870606E401C6066216891F8C0
:1027A00030100170606E401C6066216891F8301036
:1027B0000170606E401C6066216891F830100170F5
:1027C000606E401C6066B4F86A00001FA4F86A00DE
:1027D000B4F86A500FE0042D02D211F4C04FC5D1F5
:1027E000FEF73AF9A0EB0A011098814202D3401C8F
:1027F00001D01EE0E8B156EA05009BD1109B0022F3
:1028000008212046CDF800A000F0E6FC28B1D4F85D
:10281000840040F02000C4F88400204600F032FC20
:1028200084F88190D4F8841084F8808081B10120EC
:10283000C2E6204600F026FCD4F8842084F880808C
:1028400042F48072C4F8842084F881900320B3E6B7
:102850000020B1E60030014000380040003C00405C
:10286000024A136883430B43136070470404005803
:10287000401EB0F1807F10B501D3012010BD4FF094
:10288000E02460610F21601701F0D4F80020A061FE
:102890000721216110BD30B590F88410012918D0AE
:1028A000012280F884202421C0F8881000222024EE
:1028B00001680B680D6823F0005325F001050D60D9
:1028C000426601680B60C0F8884080F8842010469A
:1028D00030BD022030BD70B5044690F88400012858
:1028E0001DD0012284F884202420C4F888002068A8
:1028F0000568026822F0010202602068826822F006
:1029000060620A438260204600F05CFD226820215C
:1029100000201560C4F8881084F8840070BD02207F
:1029200070BD70B5044690F8840001281DD00122C6
:1029300084F884202420C4F8880020680568026890
:1029400022F0010202602068826822F060420A439D
:102950008260204600F036FD2268202100201560AC
:10296000C4F8881084F8840070BD022070BD10B5D2
:10297000040003D0D4F8880010B107E0012010BD96
:10298000002084F88400204600F026F82420C4F8B3
:1029900088002068016821F001010160A06A10B17F
:1029A000204600F031FD204600F012FE0128E6D05E
:1029B0002068416821F4904141602068816821F0DD
:1029C0002A0181602068016841F001010160204610
:1029D000BDE8104000F07CBDF0B5B7B0044614214E
:1029E00030A8FDF7C2FCC0216846FDF7BEFC2D4EA5
:1029F00002272D492068083E2A4D0024884225D10F
:102A000000201E940221CDE900106846FEF79CFAD2
:102A100008B1FDF7AAFE286840F4801028602868F5
:102A200000F480103590306840F00200306030686B
:102A30000E2100F0020035904FF440503090CDE967
:102A40003174CDE93341194830A927E0184988424B
:102A500026D100201E940221CDE900106846FEF721
:102A600073FA08B1FDF781FE286840F080402860C5
:102A7000286800F080403590306840F010003060E9
:102A80003068072100F0100035904FF4C07030908E
:102A9000CDE93174CDE93341064830A9FDF7BAFEDE
:102AA00037B0F0BDE844025800500040000402581E
:102AB00000780040001002582DE9F8430446D0F891
:102AC0008800984616460D46202802D00220BDE810
:102AD000F883A5B19EB10021C4F890102120C4F85C
:102AE00088001834FDF7B8FF814654F8100CA6870B
:102AF000E6872027183CB0F5805F02D003E0012074
:102B0000E5E7206910B12E46002510E000260EE012
:102B10008021204600F032FFC0B9DEB116F8010B6B
:102B200021688862B4F85600401EA4F85600B4F834
:102B300056004B464FF00002CDF800800028E7D148
:102B40004FF04001204600F019FF48B1C4F88870EA
:102B50000320BCE735F8020B2168C0F30800E0E76A
:102B6000C4F888700020B2E7FEE700002DE9F047C6
:102B700086B014216846FDF7F8FB4948016841F02A
:102B800080010160016801F080010591016841F058
:102B900004010160016801F004010591016841F040
:102BA00001010160016801F001010591016841F036
:102BB00010010160016801F010010591016841F008
:102BC00002010160016801F002010591016841F014
:102BD0000801016000680022324F092100F008005E
:102BE00005903846FDF72CFFDFF8BC800122072155
:102BF0004046FDF725FFDFF8B49043F61876002233
:102C000031464846FDF71CFFDFF8A4A0002238211A
:102C10005046FDF715FF01246946002509208DE87F
:102C2000310038460395FDF7F5FD02210720CDE977
:102C30000004CDE9024169464046FDF7EBFD08205E
:102C40004FF404118DE8130069464046FDF7E2FD9C
:102C500000966946CDE9014548460395FDF7DAFD42
:102C6000382069468DE8310050460395FDF7D2FDC6
:102C70000021E006FFF7F4FD00212006FFF7F0FD3C
:102C800000216006FFF7ECFD002201210920FDF77D
:102C9000A9FF0920FDF798FF06B0BDE8F087000006
:102CA000E04402580008025800000258000C025884
:102CB000000402582DE9F041154807254FF08042E5
:102CC000124F00219411C0E9021513118361C0E96C
:102CD0000414C0E90721416216128162C162C0E991
:102CE0000D21C163016441648164C1640165416572
:102CF0008165C0E90076FFF7CFFA002803D0BDE870
:102D0000F041FDF732BDBDE8F08100000030014028
:102D1000800E002470B5144803224FF48004114D36
:102D200000212301C0E9021201611A01C0E9051363
:102D3000C161016241628162C162C0E90D21C1636A
:102D4000016441648164C164016541658165C0E9D4
:102D50000054FFF7A1FA002803D0BDE87040FDF74A
:102D600004BD70BD00380040080F00241848002141
:102D700010B5164C0C224FF4E1330460C0E9013168
:102D8000C160C0E904128161C16101624162816276
:102D9000FFF7EDFD08B1FDF7E8FC0D480021FFF756
:102DA000C0FD08B1FDF7E1FC09480021FFF793FDE4
:102DB00008B1FDF7DAFC0648FFF76DFD002803D0E7
:102DC000BDE81040FDF7D1BC10BD00000050004030
:102DD000900F00241848002110B5164C0C224FF417
:102DE000E1330460C0E90131C160C0E904128161CE
:102DF000C161016241628162FFF7B9FD08B1FDF76F
:102E0000B4FC0D480021FFF78CFD08B1FDF7ADFCC7
:102E100009480021FFF75FFD08B1FDF7A6FC064851
:102E2000FFF739FD002803D0BDE81040FDF79DBC39
:102E300010BD00000078004024100024FEE7FEE7EB
:102E4000704700002DE9F047454D044689464FF094
:102E5000000A2868C04380070AD0414E283E3068E7
:102E600020F080603060FDF7F7FD0746B04608E0CF
:102E70000120BDE8F08700BFFDF7EEFDC01B022872
:102E800067D8D8F800000001F6D4206829684FF40C
:102E9000FE0721F47C313E0241EA00302860207AAE
:102EA000A389B4F804C040022D4D2D495B1E227C3D
:102EB000ACF1010C1035091DA0F5007080B2521E56
:102EC000CCF3080C07EA034340EA0C00184306EA77
:102ED0000262104328600868626920F0C000104355
:102EE00008600A68A06922F0200202430A60281DD7
:102EF0000A6822F010020A6002684FF6F873E4696B
:102F00009A4342EAC40202600868B9F1000F40F037
:102F100010020A6011D00868B9F1010F11D040F415
:102F200000100860D8F80000444640F08060C8F8FF
:102F30000000FDF791FD05460DE0086840F4002013
:102F4000EFE740F48010ECE7FDF786FD401B022818
:102F500001D903208DE720680001F5D5504688E7A8
:102F6000284402582DE9F047454D044689464FF064
:102F7000000A2868C04380070AD0414E283E3068C6
:102F800020F080503060FDF767FD0746B04608E04E
:102F90000120BDE8F08700BFFDF75EFDC01B0228E1
:102FA00067D8D8F800008000F6D4208829684FF44C
:102FB000FE0721F07C713E0241EA00502860207A31
:102FC000A389B4F804C040022D4D2D495B1E227C1C
:102FD000ACF1010C1835091DA0F5007080B2521E2D
:102FE000CCF3080C07EA034340EA0C00184306EA56
:102FF0000262104328600868626920F44060104350
:1030000008600A68A06922F4007202430A60281D61
:103010000A6822F480720A6002684FF6F873E46965
:103020009A4342EAC40202600868B9F1000F40F412
:1030300080720A6011D00868B9F1010F11D040F018
:1030400080700860D8F80000444640F08050C8F80E
:103050000000FDF701FD05460DE0086840F4800022
:10306000EFE740F40000ECE7FDF7F6FC401B022818
:1030700001D903208DE720688000F5D5504688E708
:103080002844025810B5026840F26F3351699469C0
:1030900044F0080494610268946944F01004946157
:1030A0000268146824F001041460026814699C43E7
:1030B00014610268936823F44043936090F8812080
:1030C000042A0CD08A060AD5D0F8842042F0800267
:1030D000C0F884200268936943F02003936190F85C
:1030E0008120032A0CD04A060AD5D0F8842042F069
:1030F0000402C0F884200268936943F0400393619E
:103100008A050AD5D0F8842042F00102C0F8842054
:103110000268936943F400739361C9050AD5D0F836
:10312000841041F00801C0F8841001688A6942F4F3
:1031300080728A610021A0F86210A0F86A1010BDA8
:1031400000B587B014216846FDF70FF916480168ED
:1031500041F008010160016801F008010591016872
:1031600041F001010160016801F001010591016870
:1031700041F002010160016801F00201059101685E
:1031800041F00401016000680121002200F0040008
:103190000590042002238DE80F0004486946FDF7DE
:1031A00039FB07B0002000BDE0440258000002587F
:1031B00003B583B000210A2201238DF8041004A96D
:1031C000009201AAFFF7A8F910B1002005B000BDD8
:1031D0009DF80400FAE700002DE9F0411C46164670
:1031E0000D460746DDF818800AE000BFFDF734FC05
:1031F000A0EB0800A04202D3601C01D00BE054B148
:103200003868406935EA000007D00020B042EDD0B0
:103210000020BDE8F0810320FBE70120F6E77047BE
:10322000FDF720BC70B59CB04C216846FDF79DF8B9
:10323000202113A8FDF799F80220FDF705FD21488C
:1032400000242149026842F44042026002680A6890
:1032500042F001020A60096801F001011B91016856
:103260008904FCD50220009040250495012103919A
:1032700004220B923C23CDE90904CDE90C300FABBD
:1032800005260E960C2183E8130068461294FEF77B
:1032900041FD08B172B6FEE708221A95CDE9162560
:1032A000D30113AA3F200321CDE9185382E813006C
:1032B000042113A8FEF71EFB002801D072B6FEE71A
:1032C0001CB070BD184802582C0400583348F0B5A3
:1032D000334A016841F470010160106800F00F008A
:1032E000072804D2106820F00F00C01D10602D497F
:1032F00000202C4C10340B682B4D43F001030B6065
:1033000020600B682B400B60136803F00F03072B42
:1033100004D9136823F00F03DB1D1360214C234AEB
:103320001834234B261D371D20601E4C214D283498
:103330003060261D3860371D23603B1D35601C1D25
:103340003A60251D2E1D1860331D226028603260F2
:1033500018600A68134B184C22F4802260330A600C
:10336000186020686FF30F00B0F1005F03D21349BB
:103370000120C1F808010B48D4300168C9040BD4FE
:10338000026843F2D2010E4B42F48052026019608F
:10339000016821F480510160F0BD000088ED00E07B
:1033A00000200052004402587FEDF6EA800201013D
:1033B000000202020000FF010010005C00800051CA
:1033C0000040005230B5416EB9B101680D4B03F1B8
:1033D00008048A688968C2F34262490F5D5C615CD7
:1033E0002D01B5FBF1F1A0F86A10995CA25C09010E
:1033F000B1FBF2F1A0F8681030BD0121A0F86A100D
:10340000F8E70000C845000890F82810090706D51D
:103410000168836B4A6822F400421A434A6090F8BC
:103420002810C90706D00168C36A4A6822F400322E
:103430001A434A6090F82810890706D50168036B83
:103440004A6822F480321A434A6090F828104907EB
:1034500006D50168436B4A6822F480221A434A6009
:1034600090F82810C90606D50168C36B8A6822F453
:1034700080521A438A6090F82810890606D50168A0
:10348000036C8A6822F400521A438A6090F828106C
:10349000490611D50168436C4A6822F480121A4328
:1034A0004A60416CB1F5801F06D10168836C4A689F
:1034B00022F4C0021A434A6090F82810090606D583
:1034C0000168C26C486820F40020104348607047CF
:1034D0002DE9F84300250446C0F89050FDF7BCFAEA
:1034E0008046206820266FF07E470068000713D5CD
:1034F0000022434631042046009700F03FFA58B1BD
:10350000216851E8000F20F0800041E80002002A05
:10351000F6D1C4F8886021E020680068400722D511
:10352000002243464FF480012046009700F026FA1F
:10353000C8B1206850E8001F21F4907140E80012E3
:10354000002AF6D12068083050E8001F21F0010160
:1035500040E80012002AF5D1C4F88C60032084F8FA
:103560008450BDE8F883C4F88860C4F88C60E566D0
:103570002567002084F88450F3E7000010B5026846
:1035800052E8001F21F4907142E80013002BF6D19D
:103590000E4B0268083252E8001F194042E800143E
:1035A000002CF6D1C16E012908D1026852E8001F33
:1035B00021F0100142E80013002BF6D10021202257
:1035C000C0F88C20C166416710BD0000FEFFFFEF10
:1035D0002DE9F04304468068D84E87B0D84B216867
:1035E000D4E90427D4F81CC010430A68002547EA30
:1035F0000C073843324002430A602068E2684168A1
:1036000021F44051114341602268A1699A4201D0DE
:10361000206A01439768DFF82CC3CB4ECB4807EAFA
:103620000C070F4397602168676ACA6A22F00F028D
:103630003A43CA622268B2420ED1006800F03800F4
:10364000182873D047DCB8B3082879D010286FD178
:1036500078E028287ED17BE0BD498A4209D1006804
:1036600000F00700062875D2DFE800F0546A6C6E9F
:103670007072B8498A4209D1006800F00700062834
:1036800068D2DFE800F0475D5F616365B2498A4256
:1036900009D1006800F0070006285BD2DFE800F0DF
:1036A0003A5052545658AD498A420BD1006800F046
:1036B000070006284ED200E010E0DFE800F02B41C2
:1036C00043454749A6498A420AD1006800F03800BC
:1036D000182839D0B7DD2028BBD13CE001203AE0E2
:1036E000A0498A4209D1006800F00700062831D2BB
:1036F000DFE800F01026282A2C2E9B498A420BD1A5
:10370000006800F00700062824D2DFE800F0031963
:103710001B1D1F2100201EE09A421BD18B48001D5B
:10372000006800F00700062814D202E00CE007E071
:1037300010E0DFE800F0030507090B0D02200AE0A6
:10374000042008E0082006E0102004E0202002E029
:10375000402000E080208549DFF814829A42854AA3
:103760004FF400434FEA21174FF000064ED11028C6
:103770001AD006DC022809D004280BD008287CD1F6
:103780000DE020283ED0402877D13DE0FDF786FAB5
:10379000014610E06846FDF793FA01990BE003A893
:1037A000FDF730FB049906E01068800605D5106827
:1037B000C0F3C100C140002970D0606A676838F862
:1037C000102007EB4703B1FBF2F0834255D8B0EB72
:1037D000073F52D8002308461946FCF77FFD0246F2
:1037E0007808130E120243EA012110183A4671417B
:1037F0000023FCF773FD604AA0F5407191423CD86C
:1038000021688FE03946D8E71946D6E7D4F81CC0BE
:103810004FF6EF799C4546D1082819D005DC58B100
:1038200001280CD0042875D10DE0102815D02028CF
:1038300035D040286ED134E0FEF7ACF901E0FEF758
:10384000BBF9014610E06846FDF73AFA01990BE032
:1038500003A8FDF7D7FA049906E01068800604D59E
:103860001068C0F3C100C140C1B1636A606838F834
:103870001330B1FBF3F1490000E04BE001EB5001E4
:10388000B1FBF0F0A0F11001494543D84FF6F073B9
:103890002168C0F342021840104343E043E0394638
:1038A000E3E71946E1E7082819D005DC58B10128FB
:1038B0000CD004282ED10DE0102815D020282BD0B4
:1038C000402827D12AE0FEF765F901E0FEF774F9F8
:1038D000014610E06846FDF7F3F901990BE003A8F3
:1038E000FDF790FA049906E01068800604D5106888
:1038F000C0F3C100C140B1B1636A606838F81330E9
:10390000B1FBF3F101EB5001B1FBF0F0A0F11001BC
:10391000494505D9012506E03946EDE71946EBE7AB
:10392000216880B2C8600120A4F86A00A4F8680089
:1039300028466667A66707B0BDE8F083F369FFCF46
:10394000000C0058FFF4FF110010014054440258CD
:103950000044004000480040004C0040005000403F
:103960000014014000780040007C00400090D0032B
:10397000B045000800440258FFFC0F002DE9F04755
:10398000994617460D460446089E4FF0000833E05E
:10399000701C31D0FDF760F8A0EB0900B04218D8D8
:1039A000BEB120680168490726D5802D24D0402D5E
:1039B00022D0C169C94309070DD4082505622046F4
:1039C000FFF7DCFDC4F89050012084F88480BDE846
:1039D000F0870320FBE7C069C04300050CD42168D1
:1039E0004FF4006008622046FFF7C8FD2021C4F8AC
:1039F000901084F88480ECE72068C06935EA000004
:103A000004D00020B842C3D00020E0E70120F9E74D
:103A1000FEE700000FB4054B10B503A9044A029855
:103A200000F028F810BC5DF814FB00009D3F000872
:103A300034000024090700284FEA116104DB00F17B
:103A4000E02080F80014704700F00F0000F1E02043
:103A500080F8141D704702E008C8121F08C1002A30
:103A6000FAD170477047002001E001C1121F002AFF
:103A7000FBD170472DE9FF4F8DB00F46054600265C
:103A800006E025280BD0DDE90F1290476D1C761C4F
:103A900028780028F5D111B03046BDE8F08F002419
:103AA000A246A1460122E94900E0044315F8013F7E
:103AB000203B02FA03F00842F7D128782A2810D0D8
:103AC0006FF02F022878A0F13001092914D80AEBF1
:103AD0008A0102EB410144F0020400EB010A6D1C73
:103AE000F0E701CF5FEA000A03D544F40054CAF1BD
:103AF000000A44F002046D1C28782E2817D115F80E
:103B0000010F44F004042A280ED06FF02F02287809
:103B1000A0F1300109290AD809EB890102EB410122
:103B200000EB01096D1CF2E757F8049B6D1C287827
:103B30006C280FD006DC4C2817D068280DD06A28D6
:103B400014D104E0742810D07A280FD10DE044F489
:103B500000140AE044F4801401E044F4401469784D
:103B6000814202D104F580146D1C6D1C28786E28EA
:103B70001ED00CDC632830D004DC00288BD0582801
:103B800011D19FE0642867D069280CD164E07328C4
:103B90002DD004DC6F2872D0702804D194E07528F1
:103BA0006ED078286DD0DDE90F129047761C4BE17E
:103BB000C4F30250022806D0032809D0042801CFFC
:103BC00009D0066040E101CFF117C0E900613BE197
:103BD00001CF068038E1067036E117F8040B8DF846
:103BE000000000208DF80100EB46012003E057F8AB
:103BF00004BB4FF0FF3061074FF0000102D40DE02D
:103C000008F10101884649450FDA8045F8DB1BF8C9
:103C100008100029F4D108E008F10101884681422A
:103C2000FADB1BF808100029F6D1DDE90F23AAEB17
:103C300008008146214600F031F9304400EB0806C7
:103C400004E0DDE90F121BF8010B9047B8F1010801
:103C5000F7D221464846F2E00A21C4F302524FF05F
:103C6000000B0891022A04D001CFC117032A09D002
:103C70000AE0FF1D27F00707F7E8020108E02CE043
:103C80001EE01FE000B2C117042A01D140B2C117E3
:103C9000021E71F1000206DA0023D0EB030063EB91
:103CA00001012D2202E0220504D52B228DF82420CB
:103CB000012203E0E20701D02022F7E7904653E01B
:103CC0000A210BE0102109E010214FF0000B44F015
:103CD00004044FF00809089103E008214FF0000B9D
:103CE0000891C4F30252022A04D001CF0021032A12
:103CF00006D006E0FF1D27F00707F7E8020103E002
:103D000080B2042A00D1C0B24FF0000822072BD5A0
:103D10002A78702A07D0DDF820C08CF0100C5CEAFD
:103D20000B0C05D00EE040228DF82420012208E083
:103D300050EA010306D030238DF824308DF8252079
:103D400002229046089B83F0080353EA0B030BD131
:103D500050EA010201D1620706D530228DF82420F5
:103D60004FF00108A9F101092A78582A04D038A295
:103D70000B9208AA0A920BE03AA2F9E75B46089A6E
:103D8000FCF7ACFA0B9B9B5C0A9A521E0A921370CA
:103D900050EA0102F2D10A98ADEB000000F1200BCD
:103DA000600702D524F4803401E04FF00109D945C1
:103DB00002DDA9EB0B0000E0002000EB0B01414409
:103DC0000890AAEB010AE00306D4DDE90F2321469F
:103DD000504600F063F806444FF0000908E009A9D6
:103DE00011F80900DDE90F12904709F10109761C6D
:103DF000C145F4DBE0030CD5DDE90F232146504635
:103E000000F04CF8064404E0DDE90F123020904742
:103E1000761C0899481E08900029F5DC08E00A98ED
:103E20000A990078491C0A91DDE90F129047761C27
:103E3000BBF10001ABF1010BF1DC21465046DDE99D
:103E40000F2300F019F806446D1C21E60928010033
:103E50003031323334353637383961626364656600
:103E600000000000303132333435363738394142C2
:103E700043444546000000002DE9F041044600257A
:103E80001E461746880404D405E039462020B04772
:103E90006D1C641EF9D52846BDE8F0812DE9F0417E
:103EA000044600251E469046C80301D5302700E091
:103EB0002027880404D505E041463846B0476D1CEC
:103EC000641EF9D52846BDE8F08100002DE9F043D5
:103ED00004889146D0E901286FF0030505EB8405BD
:103EE000DFED140A02EB050C17E000BFB1EC011A7C
:103EF000B0EE600A174645462646ACEC011A06E0CD
:103F0000B7EC011A761EF5EC011A01EE210A002E1B
:103F1000F6D1121D5B1EA9EC010A002BE6D1406808
:103F200004E000BFB2EC010AA0EC010A641EF9D162
:103F3000BDE8F0830000000070B504461D460498FB
:103F4000A2600844218081001846091FFCF70DFA81
:103F5000656070BD70B50E4C05462068C0070AD17B
:103F60000C480268002142F08072026061602068A3
:103F700040F0010020606668FDF7EAFD0649B0FBED
:103F8000F1F068436168891B8142FBD370BD00007A
:103F9000001000E0FCED00E040420F0013B50448C3
:103FA00001224FF6FF736946FEF786FD00981CBD9F
:103FB000900F00241FB500250095019502950395EB
:103FC000FCF7D4FD4FF0010A8DF80CA01F218DF8ED
:103FD000081087228DF809208DF80DA068468DF80D
:103FE00000A08DF80A508DF80E508DF80150019503
:103FF0008DF80B508DF80F50FCF78AFD0420FCF76C
:10400000C3FDFCF737FDFFF70DF9FEF7AFFDFEF737
:1040100051FEFEF77FFEFEF7A9FEFEF7DBFEFFF77F
:104020008FF85348FCF714FA5148FCF74FFB514CFA
:104030008121514B514A6068009003F56360FFF79E
:104040007BFF4F4B812160684E4A009003F6384059
:10405000FFF772FFDFF830B140F28A28DFF82C91C9
:104060006078012834D020780128F9D194ED020A33
:10407000404A4748B8EE400A1432111F84ED040A42
:104080006368FFF723FF94ED030A3A4A4048B8EE0D
:10409000400A1C32111F84ED060A63680C30FFF7DA
:1040A00015FFB4F902004646B04247DA94ED070A1C
:1040B0009623BCEEC00A10EE102A92FBF3F2A2F592
:1040C000C0622C3A49F8202031D549F8205033E01D
:1040D000002258460421FCF7B3FC00266F46244812
:1040E0000021FFF765F8711CB855CEB2092EF6D342
:1040F000012258460421FCF7A3FC9DF803309DF8EB
:1041000004009DF805201B0443EA00201043A06032
:104110009DF806309DF807009DF808201B0443EA2F
:1041200000201043E06084F800A065709EE7FF2A3D
:1041300002DDFF2249F82020401C6080B4F9020013
:10414000B04212DB0A48FCF783F9B0464F4600261E
:1041500010A057F82610FFF75DFC6420FCF716FB53
:10416000761CB6B24645F3D36580257078E700002B
:10417000800E00240000002438000024AC43000816
:104180003C020024A841000800000258400400241A
:10419000680E00246164642073302E69642C302C16
:1041A0002564FFFFFF000000A3CE1338885A86392C
:1041B00048EF163ADC245C3A01486E3AD37A3F3A2B
:1041C00040E7C639A21B313876C388B8B5D5403927
:1041D000EAE83F3A8926AE3A706BD63A814EB93A50
:1041E0001E75343AA4AE57B9558148BAAE2A1BBAE7
:1041F000DBB1AF39A3C5CD3A02B01B3BCCC20A3B01
:104200002B5F2F3AB068B9BA0AD14BBB8FEC62BBB7
:1042100024B30EBBFDF9B4386C4DFF3A0CD8033B08
:10422000F0A49CB90DC18BBB639804BCACBE20BC90
:104230004DD109BC519D96BB4DE622BAE358513A87
:1042400046AA01BB418B09BC0D8880BCAD5BA5BCF7
:10425000C3179EBC757558BC5DCBA9BB9335E9B837
:104260008EB0FFBAA16838BC6134C7BC7ABE0DBD40
:10427000BDAE13BD1A25DABC6E3C27BCC6E7933B26
:10428000A71E033C8A44A1BBE20200BDD3B773BDA5
:1042900063CB96BD0B3A75BD5A5A5DBC70A36B3D9E
:1042A0001F87093E1AFB453E01A55C3E1AFB453EB1
:1042B0001F87093E70A36B3D5A5A5DBC0B3A75BD12
:1042C00063CB96BDD3B773BDE20200BD8A44A1BBE8
:1042D000A71E033CC6E7933B6E3C27BC1A25DABCFD
:1042E000BDAE13BD7ABE0DBD6134C7BCA16838BC7C
:1042F0008EB0FFBA9335E9B85DCBA9BB757558BCD4
:10430000C3179EBCAD5BA5BC0D8880BC418B09BCAE
:1043100046AA01BBE358513A4DE622BA519D96BBDD
:104320004DD109BCACBE20BC639804BC0DC18BBB95
:10433000F0A49CB90CD8033B6C4DFF3AFDF9B4389E
:1043400024B30EBB8FEC62BB0AD14BBBB068B9BAC9
:104350002B5F2F3ACCC20A3B02B01B3BA3C5CD3A20
:10436000DBB1AF39AE2A1BBA558148BAA4AE57B9F2
:104370001E75343A814EB93A706BD63A8926AE3AF8
:10438000EAE83F3AB5D5403976C388B8A21B313840
:1043900040E7C639D37A3F3A01486E3ADC245C3AAA
:1043A00048EF163A885A8639A3CE1338D114E1B9AA
:1043B0002CA8DAB97DF2D5B99E80D2B9EFC8CFB9B1
:1043C000242CCDB959F6C9B96E60C5B9A691BEB94C
:1043D00089A1B4B9FE99A6B9A27993B9A66C74B9AA
:1043E000BF7F33B99B0BC4B85E170A366D58F638D9
:1043F0009A8D85393CFCD9399FEB1D3A3402563AE7
:10440000BFD58A3A31A3AE3ACE92D63A9C63013BED
:10441000D9AD193BCD31343BEEF4503B48F86F3BFE
:10442000279C883B5A569A3B2D24AD3B9FFCC03BB2
:104430003BD4D53B1E9DEB3B8223013CAADF0C3CC9
:104440009DF8183CDE62253CF311323C74F83E3C8A
:1044500022084C3CFE31593C6666663C2C95733C08
:10446000DD56803C94CF863C332C8D3C2B64933CB2
:10447000F76E993C2F449F3C96DBA43C2C2DAA3C24
:104480003E31AF3C75E0B33CE633B83C2025BC3C44
:104490003AAEBF3CDCC9C23C5073C53C85A6C73CA4
:1044A0001E60C93C749DCA3CA05CCB3C799CCB3C53
:1044B000A05CCB3C749DCA3C1E60C93C85A6C73C31
:1044C0005073C53CDCC9C23C3AAEBF3C2025BC3C65
:1044D000E633B83C75E0B33C3E31AF3C2C2DAA3CF2
:1044E00096DBA43C2F449F3CF76E993C2B64933C95
:1044F000332C8D3C94CF863CDD56803C2C95733C10
:104500006666663CFE31593C22084C3C74F83E3CE1
:10451000F311323CDE62253C9DF8183CAADF0C3CCE
:104520008223013C1E9DEB3B3BD4D53B9FFCC03B13
:104530002D24AD3B5A569A3B279C883B48F86F3B4D
:10454000EEF4503BCD31343BD9AD193B9C63013B7C
:10455000CE92D63A31A3AE3ABFD58A3A3402563A11
:104560009FEB1D3A3CFCD9399A8D85396D58F63848
:104570005E170A369B0BC4B8BF7F33B9A66C74B9FB
:10458000A27993B9FE99A6B989A1B4B9A691BEB989
:104590006E60C5B959F6C9B9242CCDB9EFC8CFB9E9
:1045A0009E80D2B97DF2D5B92CA8DAB9D114E1B97F
:1045B000010002000400060008000A000C001000C0
:1045C00020004000800000010101010307010000FC
:1045D00008040204080101010000000001020304B4
:1045E0000102030406070809084600080000002429
:1045F00038000000563A0008404600083800002401
:1046000080140000663A000800000000010000006D
:10461000000000000000000000000000000000009A
:104620000000000000000000010000001000000079
:10463000000000000090D0030090D00300000000B4
:040000050800029954
:00000001FF
